:020000040800F2
:10000000B0070020512000081D0400081F0400084C
:1000100023040008270400082B0400080000000047
:100020000000000000000000000000002F04000895
:100030003104000800000000330400083504000803
:100040006B2000086B2000086B2000086B20000864
:100050006B2000086B2000086B2000086B20000854
:100060006B2000086B2000086B2000086B20000844
:100070006B2000086B2000086B2000086B20000834
:100080006B2000086B2000086B2000086B20000824
:100090006B2000086B2000086B2000086B20000814
:1000A0006B2000086B2000086B2000086B20000804
:1000B0006B2000086B2000086B2000086B200008F4
:1000C0006B2000086B2000086B2000086B200008E4
:1000D0006B200008C51F0008B73500086B2000081A
:1000E0006B2000086B2000086B200008DFF80CD0A4
:1000F00005F084FA0048004711030008B00700200B
:1001000010B59E49888A05F049F804469B48016865
:10011000204605F0C3F803D801209849087602E08C
:100120000020964908769549C88A05F037F80446B4
:100130009248C168204605F0B1F803D801208F49E4
:10014000487602E000208D4948768C48407E0128A0
:1001500003D08A48407E012803D1002088490860E6
:1001600002E001208649086010BD30B587B0142137
:1001700002A804F056FD8149086805F047F80446D6
:1001800022460B467FA102A805F00CFB02A8002323
:100190004FF4784218210090042000F001FF7749C5
:1001A000486805F033F80446252022460B4679A11D
:1001B000009002A805F0F6FA02A800234FF4784256
:1001C0002C210090042000F0EBFE6C49886805F0BB
:1001D0001DF80446252022460B4672A1009002A875
:1001E00005F0E0FA02A800234FF478424021009085
:1001F000042000F0D5FE6149C86805F007F8044600
:1002000022460B466BA102A805F0CCFA02A80023F7
:100210004FF4784254210090042000F0C1FE07B052
:1002200030BD10B55549091D081F01F03DFD00F016
:10023000E1FA5249C86001F0DEFA044604F0AEFF6C
:100240004E49886010BD08B503F020F903E04FF473
:10025000FA7001F030FE04F037F90028F7D1484970
:1002600008605849C1F8B40157A04EF67D734FF4A9
:10027000784246210090042000F092FE642001F0B4
:100280001AFE01203E4908604FF4617001F013FE30
:1002900008BD08B501F0D2FD01F000F94EF67D7001
:1002A00001F05FFA4CA04EF67D731F220A210090E8
:1002B000032000F075FE4FF4E13003F02BF901F05C
:1002C0006BFA00F0A9F94FF4E13001F02FFE00F0D5
:1002D00055FA01F0DDFA01F0F7FA01F011FB01F037
:1002E000B7FB01F099FD40A04EF67D734FF47842C4
:1002F0001E210090042000F053FE3FA04EF67D73B7
:100300004FF4784232210090042000F049FE08BDED
:1003100008B500241E25FFF7BCFFFFF794FF00205F
:1003200001F01FFA39A000231F2204210090192098
:1003300000F036FE21E0FFF774FFFFF716FF142DE3
:1003400003DA35480078012807D1002032490870C7
:1003500004F0E7F9002502F0D1FF002003F03EF899
:10036000044614B1204604F020FAFFF7C9FE4FF40A
:100370007A7001F0A0FD681C85B2DCE70000002067
:10038000AC012142CEC2B6C8A3BA252E326620A146
:10039000E6200000CAAAB6C8A3BA252E32662025D8
:1003A00063200000B9E2D5D5A3BA252E31662025F9
:1003B00063202000D1CCCEEDA3BA252E316620706B
:1003C000706D200000002242CDF8C2E7C1ACBDD361
:1003D000CDEAB3C900000000CFB5CDB3D5FDD4DA66
:1003E000B3F5CABCBBAF0000C9E8B1B8B3F5CABC2D
:1003F000BBAFCDEAB3C90000D5FDD4DAC1ACBDD3E3
:10040000CDF8C2E7A1A3A1A300000000CFB5CDB3F2
:10041000BCE0BFD8000000001C000020704700BFF7
:10042000FEE700BFFEE700BFFEE700BFFEE7704744
:1004300070477047704700000CB500200190009095
:100440006C48006840F480306A49086000BF694821
:10045000006800F4003000900198401C0190009862
:1004600018B90198B0F5A06FF1D16248006800F4A6
:10047000003010B10120009001E0002000900098B1
:10048000012843D15C48006840F010005A490860D8
:100490000846006820F0030008600846006840F045
:1004A0000200086053484068524948600846406866
:1004B00048600846406840F48060486008464068EC
:1004C00020F47C1048600846406840F4E81048601A
:1004D0000846006840F08070086000BF454800682A
:1004E00000F000700028F9D04248406820F0030076
:1004F000404948600846406840F00200486000BF3C
:100500003C48406800F00C000828F9D10CBD10B53B
:10051000FFF792FF10BD10B53648006840F00100AB
:100520003449086008464068344908403149486009
:1005300008460068324908402E49086008460068AD
:1005400020F4802008600846406820F4FE004860DF
:100550004FF41F008860FFF7DAFF4FF00060294971
:10056000086010BD10B5002100200022214B5B68FF
:1005700003F00C0121B1042906D0082928D107E095
:10058000214B224C236027E01F4B204C236023E0AB
:10059000184B5B6803F47010164B5B6803F48032F1
:1005A000022303EB904022B9194B4343174C2360BD
:1005B0000DE0104B5B6803F4003323B1144B43434D
:1005C000124C236003E0104B4343104C236003E0C4
:1005D0000D4B0E4C236000BF00BF064B5B68C3F39E
:1005E00003130C4CE15C094B1B68CB40074C2360A8
:1005F00010BD000000100240002002400000FFF883
:10060000FFFFF6FE08ED00E000127A002000002057
:1006100000093D002400002008B50121182002F047
:1006200045F80120ADF8000010208DF803000320EC
:100630008DF802006946094801F07CFD4FF4005036
:10064000ADF800006946064801F074FD0020054938
:1006500008600549C1F8B40108BD0000000C014064
:1006600000100140808121420000224208B5012192
:10067000042002F01BF80320ADF8000000208DF8E4
:1006800003006946404801F055FD08BD00B591B032
:100690000121084601F0FDFF0121480202F006F8A1
:1006A0003A4802F0D9FA3A4806903A4807900020B2
:1006B00008900220099000200A9080200B904000B2
:1006C0000C9080000D9020200E9000020F900020D2
:1006D000109006A92D4802F061FB01212B4802F081
:1006E00088FB0020019001208DF808008DF809009A
:1006F0004FF4602003900020049002208DF8140035
:1007000001A923484C3802F0F8FB4FF4404001F0B7
:1007100031FF0523012200211D484C3802F085FCE1
:100720000523022201211A484C3802F07EFC0121E7
:1007300017484C3802F018FC012115484C3802F0DB
:1007400008FC13484C3802F026FC00BF10484C3817
:1007500002F026FC0028F9D10D484C3802F02AFCA2
:1007600000BF0B484C3802F02AFC0028F9D10121C7
:1007700007484C3802F02DFC11B000BD10B5FFF752
:1007800075FFFFF783FF10BD00080140080002401D
:100790004C2401403400002070B50024002507E0FF
:1007A000804840880444052001F085FB681CC5B2E0
:1007B0000A2DF5DB0A20B4FBF0F070BD2DE9F047FF
:1007C0000024FFF7E9FF0446204604F0E7FC8246D8
:1007D0004FF08B4104F013FB814604F017FD0746F0
:1007E0004FF06632704B04F0EFFB054604F03AFD23
:1007F000BDE8F0872DE9F04F87B0FFF7DFFF0590E8
:10080000059804F003FD06464FF06632674B04F08E
:10081000DBFB04460022664B04F0D3FBCDE900016C
:10082000059804F0F3FC0446624A634B04F0CCFBE9
:100830008046DDE9002304F039FC604A604BCDE9D5
:10084000020105F013FD824604F00CFD04900498AB
:1008500007B0BDE8F08F2DE9FE4FFFF79DFF029036
:10086000029804F09BFC009004F0D0FC804600222B
:10087000544B04F0A9FB0646534A544B04F0A4FB26
:100880000446534A534B04F099FB824604F0EAFCB9
:1008900001900198BDE8FE8F2DE9F05FFFF78EFF14
:1008A0008346584604F0B2FC80464FF040424A4B23
:1008B00005F0DCFC06464FF02042484B04F084FB78
:1008C000044604F0CFFC82465046BDE8F09F2DE977
:1008D000FF5FFFF773FF03904148039904F057FA55
:1008E000019004F093FC06460F46039804F08EFC3A
:1008F0003C4A3D4BCDE9000104F066FB80463246A0
:100900003B4604F0D3FB0446384A394B05F0AEFCB5
:10091000824604F0A7FC0290029804B0BDE8F09F64
:100920002DE9F05FFFF74AFF83464FF0000A584673
:1009300004F06CFC0446264A2E4B04F07BFC00D2EB
:100940002DE0584604F062FC04461F4A2A4B04F08E
:1009500071FC11D2584604F059FC8046274A284BB6
:1009600004F032FB0646274A274B04F027FB0446D7
:1009700004F078FC824612E0584604F047FC8046BA
:10098000184A5242214B04F01FFB0646104A5242BD
:100990001F4B04F013FB044604F064FC82465046EF
:1009A000BDE8F09F3400002066660A406666144089
:1009B0000080394046949B4DECE6794014D044D8F1
:1009C000F0F4E43F0000543F0AD7A3703D0AD73F3C
:1009D00048E17A14AE47F13FF753F7BF9B94584074
:1009E0000000A040713D0AD7A370414004734B70D2
:1009F00001FA0840AE47F93F3D0A09401F85EB5117
:100A0000B81E30407B14AE47E17A39405C2F454038
:100A100051E85A4030B5014601F01F04C1F34513B7
:100A2000CA0AE50205EB43151544A8B230BD2DE90D
:100A3000F04706460F4690469A46002445464FEA40
:100A40004800C0F103094AE07A1991B2321990B214
:100A5000524600F06AFE7A1991B2321B90B25246A9
:100A600000F063FE7A1B91B2321990B2524600F048
:100A70005CFE7A1B91B2321B90B2524600F055FEDA
:100A80003A1991B2721990B2524600F04EFE3A19DC
:100A900091B2721B90B2524600F047FE3A1B91B2DF
:100AA000721990B2524600F040FE3A1B91B2721B8E
:100AB00090B2524600F039FEB9F1000F05DA042079
:100AC00000FB049000F1060907E0601B042101FB14
:100AD000009000F10A09681E85B2601C84B2AC4225
:100AE000B2DBAC4237D17A1991B2321990B2524688
:100AF00000F01BFE7A1991B2321990B2524600F002
:100B000014FE7A1B91B2321990B2524600F00DFEDB
:100B10007A1B91B2321B90B2524600F006FE3A198F
:100B200091B2721990B2524600F0FFFD3A1991B29B
:100B3000721B90B2524600F0F8FD3A1B91B2721946
:100B400090B2524600F0F1FD3A1B91B2721B90B286
:100B5000524600F0EAFDBDE8F0872DE9FF4F83B073
:100B6000804689464946404600F0D5FD0598A0EBF1
:100B700008050698A0EB0906002D02DB0120029073
:100B800003E04FF0FF3002906D42002E02DB0120A7
:100B9000019003E04FF0FF30019076424FEA450AA2
:100BA0004FEA460BB54219DDABEB0504002712E016
:100BB00049464046109A00F0B8FD002C05DBA4EB36
:100BC0000A04019848441FFA80F95C4402984044A2
:100BD0001FFA80F87F1CAF42EADD18E0AAEB06049A
:100BE000002712E049464046109A00F09EFD002C76
:100BF00005DBA4EB0B04029840441FFA80F8544430
:100C0000019848441FFA80F97F1CB742EADD07B01B
:100C1000BDE8F08F2DE9F84305460E461746984685
:100C2000089C33463A46314628460094FFF795FF24
:100C300043462A46314628460094FFF78EFF434636
:100C40003A46414628460094FFF787FF43463A4616
:100C5000314638460094FFF780FFBDE8F8832DE960
:100C6000F84305460C4616461F46DDF820804EF632
:100C70007D700090A81982B2234621462846FFF7CE
:100C80006CFF42F6651004F1010CBC441FFA8CF3B2
:100C900005EB060CACF1010C1FFA8CF204F1010C0F
:100CA0001FFA8CF105EB060CACF1010C00901FFA59
:100CB0008CF0FFF752FF42F665100090E01983B206
:100CC000A81982B2E01981B22846FFF746FF4EF616
:100CD0007D700090E01983B22A4621462846FFF72E
:100CE0003CFF04F1010CBC44ACF1020C1FFA8CF384
:100CF00005F1010CB444ACF1020C1FFA8CF204F1C2
:100D0000010C1FFA8CF105F1010C1FFA8CF0CDF8E3
:100D10000080FFF722FFBDE8F8832DE9F843054680
:100D20000C4616461F46DDF82080B8F1000F39D179
:100D30004EF67D700090A81982B2234621462846BF
:100D4000FFF70BFF42F6651004F1010CBC441FFADB
:100D50008CF305EB060CACF1010C1FFA8CF204F1DC
:100D6000010C1FFA8CF105EB060CACF1010C0090A4
:100D70001FFA8CF0FFF7F1FE42F665100090E019C3
:100D800083B2A81982B2E01981B22846FFF7E5FEC6
:100D90004EF67D700090E01983B22A46214628461F
:100DA000FFF7DBFEB8F1010F39D142F66510009074
:100DB000A81982B2234621462846FFF7CEFE4EF6FA
:100DC0007D7004F1010CBC441FFA8CF305EB060C9A
:100DD000ACF1010C1FFA8CF204F1010C1FFA8CF13A
:100DE00005EB060CACF1010C00901FFA8CF0FFF73C
:100DF000B4FE4EF67D700090E01983B2A81982B25D
:100E0000E01981B22846FFF7A8FE42F6651000906F
:100E1000E01983B22A4621462846FFF79EFEB8F124
:100E2000020F39D14FF6FF700090A81982B2234605
:100E300021462846FFF791FE4FF6FF7004F1010CA2
:100E4000BC441FFA8CF305EB060CACF1010C1FFA45
:100E50008CF204F1010C1FFA8CF105EB060CACF1DD
:100E6000010C00901FFA8CF0FFF777FE4FF6FF7031
:100E70000090E01983B2A81982B2E01981B2284625
:100E8000FFF76BFE4FF6FF700090E01983B22A4621
:100E900021462846FFF761FEBDE8F883F8B5044611
:100EA0000D4616461F4644F208202B463246294678
:100EB00000902046FFF751FE48F210406A1C93B2A2
:100EC00091B2621C009090B23246FFF746FE44F2A7
:100ED00008203B462246294600902046FFF73DFE6B
:100EE00048F21040631C9AB26B1C99B2631C0090CC
:100EF00098B23B46FFF731FE4FF6FF703B46324655
:100F0000394600902046FFF728FE4FF6FF703B461B
:100F10003246294600903046FFF71FFEF8BDF8B56F
:100F200006460F4614461D464FF6FF703B462246C6
:100F3000394600903046FFF710FE4FF6FF702B4603
:100F40003246394600903046FFF707FE48F210401F
:100F50006A1E93B291B2721C009090B22246FFF7C3
:100F6000FCFD44F208202B462246294600903046DC
:100F7000FFF7F3FD48F21040631E9AB27B1C99B252
:100F8000631E009098B22B46FFF7E7FD44F208205D
:100F90002B462246394600902046FFF7DEFDF8BD7D
:100FA0002DE9F84F0746884693469A46DDF8289083
:100FB0000097B3E099F8000080283DDA99F80060C6
:100FC0000D2E05D1009F08F110001FFA80F830E0C7
:100FD000202E03DDA6F1200086B200E000260024CA
:100FE00022E000251CE004EB0610E849085C8021A3
:100FF0002941084040B108EB040291B27A1990B23D
:101000005A4600F092FB09E0D34507D008EB0402F2
:1010100091B27A1990B2524600F087FB681CC5B2B3
:10102000082DE0DB601CC4B2102CDADB07F10800ED
:1010300087B209F1010971E0002668E006EB0610AD
:10104000D34911F8100099F8001088425DD106EBE1
:101050000610CF4901EB4000407899F80110884212
:1010600053D100244FE0002520E006EB0610C849CC
:1010700001EB4000801C10F8141080202841014032
:1010800041B108EB040291B27A1990B25A4600F0CD
:101090004CFB09E0D34507D008EB040291B27A1962
:1010A00090B2524600F041FB681CC5B2082DDCDB53
:1010B000002524E006EB0610B54901EB4000801C3A
:1010C000012101EB4401405C80212941084048B1E5
:1010D00008EB040291B27A19083290B25A4600F035
:1010E00024FB0AE0D34508D008EB040291B27A1938
:1010F000083290B2524600F018FB681CC5B2082DA9
:10110000D8DB601CC4B2102CADDB701C86B2292E5B
:1011100094DB09F1020907F1100087B299F8000089
:1011200000287FF447AFBDE8F88F2DE9F05F064651
:10113000884693469A46DDF82890E2E099F8000048
:10114000802835DA99F80070202F03DDA7F1200000
:1011500087B200E00027002522E000241CE005EB18
:1011600007108A49095C80202041014041B108EB09
:10117000050291B2321990B25A4600F0D6FA09E04F
:10118000D34507D008EB050291B2321990B252460E
:1011900000F0CBFA601CC4B2082CE0DB681CC5B2BE
:1011A000102DDADB09F1010906F1080086B2A8E08A
:1011B00000279EE007EB870000EB4710754911F808
:1011C000100099F8001088427CD107EB870000EBF3
:1011D0004710704901EB4000407899F801108842AF
:1011E000F2D1002580E0002423E007EB870000EB2C
:1011F0004710684901EB4000801C05EB4501405C4D
:1012000080212141084040B108EB050291B232191A
:1012100090B25A4600F089FA09E0D34507D008EBAE
:10122000050291B2321990B2524600F07EFA601C6B
:10123000C4B2082CD9DB002426E007EB870000EBC2
:101240004710544901EB4000801C05EB4501491C47
:10125000405C80212141084048B108EB050291B271
:101260003219083290B25A4600F05FFA0AE0D345CC
:1012700008D008EB050291B23219083290B25246FA
:1012800000F053FA601CC4B2082CD6DB002427E01F
:1012900007EB870000EB47103E4901EB4000801C44
:1012A00005EB4501891C405C80212141084050B17B
:1012B00008EB050291B23219103290B25A4600F092
:1012C00034FA0BE013E0D34508D008EB050291B2E5
:1012D0003219103290B2524600F027FA601CC4B2A4
:1012E000082CD5DB681CC5B2182DFFF67CAF781C26
:1012F00087B2192FFFF65EAF09F1020906F1180057
:1013000086B299F8000000287FF418AFBDE8F09F7E
:101310002DE9F05F0746884692469946002531E060
:1013200000242BE01C490A9801EBC01000EB85005B
:1013300010F804B000261DE08020304100EA0B00C8
:1013400050B108EB050291B207EBC402324490B2EF
:10135000524600F0EAF90BE0CA4509D008EB050255
:1013600091B207EBC402324490B24A4600F0DDF974
:10137000701CC6B2082EDFDB601CC4B2042CD1DBAB
:10138000681CC5B2202DCBDBBDE8F09F906C000837
:10139000027A0008CA7E00088172000808B501219F
:1013A000082001F083F94FF47040ADF800000320ED
:1013B0008DF8020010208DF803006946F54800F012
:1013C000B9FE08BD0021082118E000F080022AB112
:1013D0004FF48042EF4B10331A6004E04FF4804228
:1013E000EC4B14331A604FF40042EA4B14331A608A
:1013F0001B1F1A604206100E4A1ED1B20029E4DCFF
:10140000704710B504464FF48050E249143108602B
:10141000400008602046FFF7D5FF4FF48050DD49BB
:101420001031086010BD10B504464FF48050D94902
:10143000143108604000091F08602046FFF7C2FF12
:101440004FF48050D3491031086010BD10B50446E8
:101450004FF48050CF49143108604000091F0860E4
:101460002012FFF7AFFFE0B2FFF7ACFF4FF4805060
:10147000C8491031086010BD30B505460C462846F5
:10148000FFF7BFFF2046FFF7CEFF30BD10B5642049
:1014900000F011FD322000F00EFD10BD10B5FFF779
:1014A0007DFFFFF7F3FF1120FFF7ABFF782000F07F
:1014B00002FDB120FFF7A5FF0120FFF7B4FF2C20AC
:1014C000FFF7B1FF2D20FFF7AEFFB220FFF799FF26
:1014D0000120FFF7A8FF2C20FFF7A5FF2D20FFF725
:1014E000A2FFB320FFF78DFF0120FFF79CFF2C2008
:1014F000FFF799FF2D20FFF796FF0120FFF793FFDD
:101500002C20FFF790FF2D20FFF78DFFB420FFF771
:1015100078FF0720FFF787FFC020FFF772FFA220A8
:10152000FFF781FF0220FFF77EFF8420FFF77BFF9C
:10153000C120FFF766FFC520FFF775FFC220FFF748
:1015400060FF0A20FFF76FFF0020FFF76CFFC3204A
:10155000FFF757FF8A20FFF766FF2A20FFF763FF98
:10156000C420FFF74EFF8A20FFF75DFFEE20FFF754
:101570005AFFC520FFF745FF0E20FFF754FF362026
:10158000FFF73FFFC820FFF74EFFE020FFF739FFCE
:101590000F20FFF748FF1A20FFF745FF0F20FFF746
:1015A00042FF1820FFF73FFF2F20FFF73CFF2820C6
:1015B000FFF739FF2020FFF736FF2220FFF733FF28
:1015C0001F20FFF730FF1B20FFF72DFF2320FFF721
:1015D0002AFF3720FFF727FF0020FFF724FF07200F
:1015E000FFF721FF0220FFF71EFF1020FFF71BFF70
:1015F000E120FFF706FF0F20FFF715FF1B20FFF785
:1016000012FF0F20FFF70FFF1720FFF70CFF33200B
:10161000FFF709FF2C20FFF706FF2920FFF703FF44
:101620002E20FFF700FF3020FFF7FDFE3020FFF7F0
:10163000FAFE3920FFF7F7FE3F20FFF7F4FE002007
:10164000FFF7F1FE0720FFF7EEFE0320FFF7EBFEAA
:101650001020FFF7E8FE2A20FFF7D3FE0020FFF757
:10166000E2FE0020FFF7DFFE0020FFF7DCFE7F2018
:10167000FFF7D9FE2B20FFF7C4FE0020FFF7D3FEB3
:101680000020FFF7D0FE0020FFF7CDFE9F20FFF7E0
:10169000CAFEF020FFF7B5FE0120FFF7C4FEF620DA
:1016A000FFF7AFFE0020FFF7BEFE3A20FFF7A9FECE
:1016B0000520FFF7B8FE2920FFF7A3FE10BDF0B507
:1016C00004460D4616461F462A20FFF79AFE0020C4
:1016D000FFF7A9FEE0B2FFF7A6FE0020FFF7A3FE8A
:1016E000B11CC8B2FFF79FFE2B20FFF78AFE002037
:1016F000FFF799FE05F12001C8B2FFF794FE002024
:10170000FFF791FE07F12001C8B2FFF78CFE2C20F5
:10171000FFF777FEF0BD30B504460D462B46224656
:1017200029462046FFF7CBFF30BD70B504460D4675
:101730001646681C83B2601C82B229462046FFF719
:10174000BEFF3046FFF782FE70BD60B505460E460F
:1017500031462846FFF7DFFFE0B2FFF764FE204680
:1017600060BD70B506467F231A4600210846FFF784
:10177000A6FF2C20FFF745FE002408E0002503E02B
:101780003046FFF763FE6D1C802DF9D3641C802C5E
:10179000F4D370BD000C014008B50121042000F015
:1017A00085FF4FF40060ADF8000010208DF80300B5
:1017B00003208DF802006946034800F0BBFC0120BD
:1017C0000249086008BD000000080140AC01214248
:1017D00070B50024002507E0274800880444052050
:1017E00000F069FB681CC5B20A2DF5DB0A20B4FBCA
:1017F000F0F080B270BD2DE9FC5F4FF0000AFFF7FA
:10180000E7FF064603F0CAFC05461C4903F0C5FA8B
:1018100004464FF08B4103F0F2FA0190019803F077
:10182000F5FC0646164A174B03F027FB80460022BC
:10183000154B03F0C9FB044603F0C9FC834603F0D3
:10184000A4FC1249009003F0DAFA01900F490198C4
:1018500003F0A3FA82460D49504603F029FD01D258
:10186000DFF828A05146094803F091FA044603F036
:101870009AFCC0B2BDE8FC9F3400002033335340D3
:101880007B14AE47E17A743F000059400000C84223
:1018900008B50121082000F009FF4FF40070ADF8F1
:1018A000000010208DF8030003208DF80200694627
:1018B000034800F03FFC01200249086008BD000019
:1018C000000C0140A481214208B50121042000F050
:1018D000EDFE4FF48070ADF8000010208DF803008D
:1018E00003208DF802006946034800F023FC002025
:1018F0000249086008BD000000080140A001214223
:1019000008B50121082000F0D1FE4FF48070ADF839
:10191000000010208DF8030003208DF802006946B6
:101920004A4800F007FC8020ADF8000069464748AF
:1019300000F000FC4020ADF800006946434800F08C
:10194000F9FB2020ADF800006946404800F0F2FBAA
:101950004FF480703D4914310860802008604020B9
:1019600008602020086008BD10B50446012C29D16C
:101970000002364910310860022000F09CFA200273
:101980003249143108608020091F0860022000F0ED
:1019900092FA80202D49143108604020091F086008
:1019A000022000F088FA40202849143108602020E5
:1019B000091F0860022000F07EFA2020234914311C
:1019C000086036E0022C29D1E0012049103108607E
:1019D000022000F070FAE0011C4914310860202058
:1019E000091F0860022000F066FA20201749143110
:1019F00008604020091F0860022000F05CFA4020C7
:101A00001249143108608020091F0860022000F08C
:101A100052FA80200D49143108600AE04FF48070BA
:101A20000A491431086080200860402008602020A6
:101A3000086010BD70B50546002403E02846FFF796
:101A400093FF641CB4F5167FF8DB70BD000C0140F9
:101A500008B50121042000F029FEC020ADF80000E7
:101A600010208DF8030003208DF8020069468B4892
:101A700000F060FB01208A4908608A49C1F89C0196
:101A800008BD10B58548006820F0704083490860A3
:101A90000846006840F04050086001208049091D58
:101AA00008608049C1F89801042000F0E0F90020A6
:101AB0007B49091D0860042000F0D9F9002079490C
:101AC000C1F8980110BD10B57448006820F070404E
:101AD000724908600846006840F0405008600020E5
:101AE0006F4908606F49C1F89C01042000F0BFF9FC
:101AF00001206B4908606B49C1F89C01042000F08B
:101B0000B6F910BD10B500246448006820F070409C
:101B1000624908600846006840F000400860012003
:101B20005F49091D086000F0A2F901205D49C1F874
:101B3000980100F09CF907E0601CC4B2FA2C03DDA8
:101B4000FFF7C1FF012010BD55487C380068002810
:101B5000F2D15349086000BFF5E710B500205049A5
:101B600008604E48006820F070404C490860084604
:101B7000006840F04050086000204A49C1F89C01CC
:101B8000022000F074F9012045490860022000F0AD
:101B90006EF900204349C1F8980110BD10B500202E
:101BA0003F4908603D48006820F070403B490860AC
:101BB0000846006840F04050086001203949C1F8EB
:101BC0009C01022000F053F90120354908600220F1
:101BD00000F04DF900203349C1F8980110BD70B5EF
:101BE00004462E48006820F070402C4908600846E2
:101BF000006840F040500860002029490860002536
:101C000017E0E0092649091D08606006040E02205D
:101C100000F02DF901202349C1F89801022000F0BD
:101C200026F900201E490860022000F020F9681CF7
:101C3000C5B2082DE5DB70BD70B505460024174818
:101C4000006820F07040154908600846006840F0C0
:101C500000400860002616E00020114908600220BC
:101C600000F005F901200F49C1F898016006040E43
:101C70000B487C38006808B1601CC4B2012000F039
:101C8000F6F8701CC6B2082EE6DB15B9FFF786FF22
:101C900001E0FFF762FF204670BD00000008014030
:101CA00098012142000021422DE9F04F89B00446FD
:101CB0000D464426002020602860FFF7E2FE002148
:101CC00041EA4600FFF78BFFFFF71CFF2C20FFF7D0
:101CD00086FFFFF717FF0620FFF781FFFFF712FFD0
:101CE000FFF7F1FE322000F0E6F8FFF7CAFE01210F
:101CF00001EB4601C8B2FFF772FFFFF703FF08BB15
:101D00000120FFF799FFADF818000120FFF794FFBD
:101D1000ADF81A000120FFF78FFFADF81C0001207D
:101D2000FFF78AFFADF81E000120FFF785FFADF831
:101D300020000020FFF780FFADF82200FFF72EFF04
:101D4000FFF7C1FEBDF81A00BDF8181040EA0120E7
:101D50001FFA80F9BDF82000BDF81E1040EA0120EE
:101D60001FFA80FA484603F019FA834603F04EFA48
:101D70000022224BCDE9000103F026F9074600229C
:101D80001F4B03F093F900221E4BCDE9020103F033
:101D900015F9CDE9040103F065FA2060504603F01F
:101DA000FDF9834603F032FA0022174BCDE9020118
:101DB00003F00AF90022124BCDE9040103F076F991
:101DC000074603F04FFA28601049206803F070FAC4
:101DD0000DD80F49206803F061FA08D8002128685F
:101DE00003F066FA03D80B49286803F057FA4FF05E
:101DF000000AD14609B0BDE8F08F000000E0654060
:101E0000E0FFEF4000804640000059400000A0C1C4
:101E10000000FA420000C84208B50121042000F089
:101E200045FC2020ADF8000048208DF803006946ED
:101E3000014800F07FF908BD0008014010B56FF0BF
:101E4000040000F0EAFE2E4800682E49B0FBF1F0D5
:101E50002D4908700846007800EB4001C1EBC01026
:101E60004FF6FF7101EAC0002849088010BD014605
:101E7000254A12784A434FF0E0235A6100229A61C2
:101E80001A46126942F001021A6100BF4FF0E022C7
:101E9000106900F001021AB100F48032002AF5D076
:101EA0004FF0E022126922F001024FF0E0231A61A4
:101EB00000229A6170470146144A12884A434FF043
:101EC000E0235A6100229A611A46126942F0010227
:101ED0001A6100BF4FF0E022106900F001021AB150
:101EE00000F48032002AF5D04FF0E022126922F08F
:101EF00001024FF0E0231A6100229A61704700004E
:101F00002000002000127A00380000203A00002053
:101F100000BF704700BF4A4A128802F04002002A00
:101F2000F9D0C2B2464B1B1D1A80704710B586B05F
:101F30000446012144F2040000F0B8FB4FF40070A5
:101F4000ADF8140003208DF8160018208DF8170046
:101F500005A93C4800F0EEF84FF48060ADF814009D
:101F600004208DF8170005A9364800F0E3F8252075
:101F70008DF8000003208DF801008DF8020001208B
:101F80008DF80300684600F0FEFD01940020ADF8D6
:101F90000800ADF80A00ADF80C00ADF810000C20F8
:101FA000ADF80E0001A9264800F027FC012240F2FE
:101FB0002551234800F0B9FC0121214800F0A9FC7B
:101FC00006B010BD10B540F225511D4800F092FD3D
:101FD00010B31B4800F00EFDC4B21B48008800F48B
:101FE0000040C8B91848008800F4804060B10A2C4D
:101FF00003D000201449088020E01348008840F4F2
:1020000000401149088019E00D2C06D10E480088C7
:1020100040F480400C49088010E00B480088C0F371
:102020000D000A490C5408480088401C06490880E5
:1020300008460088C72801DD0020088010BD000088
:1020400000380140000801404000002068000020E6
:102050000648804706480047FEE7FEE7FEE7FEE742
:10206000FEE7FEE7FEE7FEE7FEE7FEE717050008EE
:10207000ED00000810B50446CC48844208D1012187
:10208000042000F02DFB0021042000F029FB46E095
:10209000C748844208D10121082000F021FB00211B
:1020A000082000F01DFB3AE0C248844208D101211B
:1020B000102000F015FB0021102000F011FB2EE095
:1020C000BD48844208D10121202000F009FB0021F5
:1020D000202000F005FB22E0B848844208D101210D
:1020E000402000F0FDFA0021402000F0F9FA16E04F
:1020F000B348844208D10121802000F0F1FA002188
:10210000802000F0EDFA0AE0AE48844207D10121B8
:10211000801500F0E5FA0021A01500F0E1FA10BDED
:1021200010B50121084600F0DBFA0021012000F083
:10213000D7FA10BD2DE9F041024600250026002007
:1021400000230024002791F803C00CF00F0591F83C
:1021500003C00CF0100CBCF1000F03D091F802C0CA
:102160004CEA050591F800C0BCF1000F31D01468AD
:1021700000202BE04FF0010C0CFA00F3B1F800C086
:102180000CEA03069E4220D183004FF00F0C0CFA9C
:1021900003F7BC4305FA03FC4CEA040491F803C0BE
:1021A000BCF1280F06D14FF0010C0CFA00FCC2F86C
:1021B00014C00AE091F803C0BCF1480F05D14FF0FC
:1021C000010C0CFA00FCC2F810C0401C0828D1D346
:1021D0001460B1F800C0BCF1FF0F34DD546800207A
:1021E0002EE000F1080C4FF0010808FA0CF3B1F8EA
:1021F00000C00CEA03069E4221D183004FF00F0C71
:102200000CFA03F7BC4305FA03FC4CEA040491F80A
:1022100003C0BCF1280F05D100F1080C08FA0CF836
:10222000C2F8148091F803C0BCF1480F07D100F147
:10223000080C4FF0010808FA0CF8C2F81080401C96
:102240000828CED35460BDE8F0814FF6FF710180BD
:10225000022181700421C1707047024600209368FA
:102260000B400BB1012000E0002070470146886858
:1022700080B2704702460020D3680B400BB10120AA
:1022800000E0002070470146C86880B270470161D5
:102290007047416170470AB1016100E041617047D8
:1022A000C16070474FF480320A438261816182616C
:1022B00082698269704702460020434B18684FF6D6
:1022C0008073184040EA021008433F4B1860704783
:1022D0003E49C8617047F0B50A460023002400213A
:1022E000002500F00046B6F1004F02D1364EF169EC
:1022F00001E0354E7168C0F3034583B200F4401627
:10230000B6F5401F08D121F070612F4E766826F097
:1023100070662D4F7E6012E000F48016B6F5801FC7
:1023200006D1032606FA05F4A14341F0706106E0E8
:10233000460D360103FA06F6B14341F0706122B151
:10234000460D360103FA06F6314300F00046B6F1B9
:10235000004F02D11C4EF16101E01B4E7160F0BDD7
:1023600030B500228B071C0F0F2303FA04F2164B23
:1023700008338C1053F824309343134C08348D10D9
:1023800044F8253023468C1053F824308C07240F52
:1023900000FA04F423430C4C08348D1044F8253023
:1023A00030BD0A49DC310860704700000008014078
:1023B000000C0140001001400014014000180140D1
:1023C000001C0140002001400000014000002042AC
:1023D000DF48006840F00100DD49086008464068B9
:1023E000DC490840DA49486008460068DA49084094
:1023F000D74908600846006820F480200860084635
:10240000406820F4FE0048604FF41F008860704769
:10241000CF49096821F48031CD4A1160114609681D
:1024200021F480211160B0F5803F03D0B0F5802FFA
:102430000ED106E0C649096841F48031C44A1160F2
:1024400007E0C349096841F4A021C14A116000E0D6
:1024500000BF00BF704710B50146002200230020D6
:102460004A11012A02D1BA4C236806E0022A02D19D
:10247000B74C236A01E0B64C636A01F01F020124E5
:1024800094401C400CB1012000E0002010BD38B584
:10249000002000900024002500BF3120FFF7DBFF63
:1024A00005460098401C00900098B0F5A06F01D040
:1024B000002DF2D03120FFF7CEFF08B1012400E05B
:1024C0000024204638BD01460020A14A106820F0B3
:1024D000F80040EAC10010607047A04908607047EA
:1024E000024600209A4B586820F47C1042EA01030F
:1024F0001843974B586070479849086670470146E3
:102500000020934A506820F0030008435060704751
:102510008F48406800F00C007047014600208C4A4C
:10252000506820F0F00008435060704701460020DA
:10253000874A506820F4E0600843506070470146C5
:102540000020834A506820F4605040EAC100506087
:10255000704729B17E4A527A02437D4B5A7204E099
:102560007B4A527A82437A4B5A7270477B49D83100
:102570000860704701460020754A506820F44040CA
:102580000843506070470021714A20321170704A30
:1025900082F82010012802D004280AD104E0012189
:1025A0006B4A2032117005E00521694A2032117012
:1025B00000E000BF00BF7047694908607047644988
:1025C000096A0143624A11627047654944390860EB
:1025D000704730B500210022002400235C4D6D6857
:1025E00005F00C0121B1042905D0082923D105E00B
:1025F0005C4D056022E05B4D05601FE0544D6D6849
:1026000005F47012524D6D6805F48034022505EB17
:1026100092421CB9544D554305600BE04C4D6D681A
:1026200005F400351DB1504D5543056002E04D4D98
:102630005543056002E04B4D056000BF00BF444DAF
:102640006D6805F0F0010909484D6B5C0568DD40D7
:1026500045603F4D6D6805F4E061090A434D6B5CD0
:102660004568DD4085603A4D6D6805F46051C90AE2
:102670003E4D6B5C4568DD40C560354D6D6805F4C9
:102680004041890B3A4D6B5CC568B5FBF3F50561BC
:1026900030BD29B12E4A526902432D4B5A6104E0E4
:1026A0002B4A526982432A4B5A61704729B1284A02
:1026B00092690243264B9A6104E0254A926982435B
:1026C000234B9A61704729B1214AD2690243204BBA
:1026D000DA6104E01E4AD26982431D4BDA61704719
:1026E00029B11B4AD2680243194BDA6004E0184A48
:1026F000D2688243164BDA60704729B1144A1269D6
:102700000243134B1A6104E0114A12698243104BD1
:102710001A61704712494039086070470F49C86410
:1027200070470B49C87170470948406A40F0807093
:1027300007494862704701460020054A92680A40EE
:102740000AB1012000E000207047014988727047FB
:10275000001002400000FFF8FFFFF6FE00004242BA
:102760008004424200127A0000093D00420000202D
:102770005200002010B50446FB48844209D10121D3
:102780008803FFF7ADFF00214FF48040FFF7A8FF5B
:1027900032E0F648844209D101214804FFF7ADFF39
:1027A00000214FF40030FFF7A8FF25E0F0488442F5
:1027B00009D101218804FFF7A0FF00214FF48020F8
:1027C000FFF79BFF18E0EB48844209D10121C804C0
:1027D000FFF793FF00214FF40020FFF78EFF0BE07F
:1027E000E548844208D101210805FFF786FF002152
:1027F0004FF48010FFF781FF10BD2DE9F04786B040
:1028000005460E460024A24600BFA1460027B08917
:1028100000B100BF2F462C8A4CF6FF700440F088B0
:1028200004432C82AC894EF6F3100440B088318901
:102830000843718908430443AC81AC8A4FF6FF40DA
:102840000440B0890443AC8201A8FFF7C2FEC64829
:10285000874202D1DDF810A001E0DDF80CA0A889C4
:1028600000F4004040B10AEBCA0000EB0A103168E6
:102870004900B0FBF1F807E00AEBCA0000EB0A10D0
:1028800031688900B0FBF1F86420B8FBF0F0040176
:102890002009642101FB1089A88900F4004040B19F
:1028A000322000EBC900B0FBF1F000F00700044358
:1028B00008E0322000EB09106421B0FBF1F000F0D9
:1028C0000F0004432C8106B0BDE8F0874FF4165189
:1028D000016000218180C18001810C2141810021A2
:1028E0008181704710B502460020108A4FF2FF0325
:1028F00018400B884C8823438C882343CC8823437F
:102900001843108210BD0021018041808180C18068
:10291000704721B1828942F40052828104E08289A9
:102920004DF6FF731A4082817047F0B503460024CC
:1029300000260025002040F66A17B94200D100BFEA
:102940001846C1F3421401F01F06012707FA06F5E5
:10295000012C01D10C3004E0022C01D1103000E038
:1029600014301AB107682F43076002E00768AF43CD
:102970000760F0BD1AB1838A0B43838202E0838A29
:102980008B4383827047028A4FF6F0731A400282AB
:10299000028A0A430282704782894FF2FF731A400B
:1029A000828182890A438281704721B1828942F003
:1029B0000202828104E082894FF6FD731A4082810F
:1029C0007047028A4FF6DF731A400282028A0A4376
:1029D0000282704721B1028A42F48042028204E0FE
:1029E000028A4BF6FF731A4002827047C1F3080255
:1029F0008280704701468888C0F30800704781894B
:102A000041F0010181817047028BD2B20283028BB7
:102A100042EA012202837047028B02F47F42028362
:102A2000028B0A430283704721B1828A42F020025E
:102A3000828204E0828A4FF6DF731A4082827047F6
:102A400021B1828A42F01002828204E0828A4FF62B
:102A5000EF731A408282704721B1828A42F00802E5
:102A6000828204E0828A4FF6F7731A4082827047AE
:102A700021B1828942F40042828103E08289C2F35B
:102A80000E028281704721B1828A42F40062828202
:102A900004E0828A4FF2FF731A4082827047828A72
:102AA0004FF6FB731A408282828A0A438282704701
:102AB00021B1828A42F00202828204E0828A4FF6C9
:102AC000FD731A408282704702460020B1F5007FF4
:102AD00000D100BF13880B400BB1012000E00020A3
:102AE000704701F40072B2F5007F00D100BFCA4305
:102AF0000280704770B502460024002300250020A4
:102B000040F66A16B14200D100BFC1F3421501F090
:102B10001F03012606FA03F3012D02D196893340E3
:102B200006E0022D02D1168A334001E0968A334036
:102B30000C12012606FA04F41688344013B10CB1C5
:102B4000012000E0002070BD10B50022002340F6F7
:102B50006A14A14200D100BF0A1201249440A3B21A
:102B6000DC43048010BD00000038014000440040F8
:102B700000480040004C00400050004031490143F3
:102B8000314A1160704770B5002100230F22C478CC
:102B900004B32D4C246804F4E064C4F5E064210A15
:102BA000C1F10403CA40447804FA03F18478144064
:102BB00021430901254C0678A155047804F01F052E
:102BC0000124AC4005786D11AD0005F1E025C5F894
:102BD000004109E0047804F01F050124AC401C4DBD
:102BE0000678761145F8264070BD1A4A0A4002431D
:102BF000154B1B1F1A60704739B1134A121D12681A
:102C00000243114B1B1D1A6006E00F4A121D126889
:102C100082430D4B1B1D1A607047042808D14FF0EA
:102C2000E021096941F004014FF0E022116107E061
:102C30004FF0E021096921F004014FF0E022116119
:102C4000704700000000FA050CED00E000E400E031
:102C500080E100E080FFFF1F01684FF6FE72114027
:102C600001600021016041608160C1608D4988423E
:102C700008D18C490839496841F00F01894A083A5E
:102C800051608AE087491431884208D18549083962
:102C9000496841F0F001834A083A51607DE081497A
:102CA0002831884208D17F490839496841F4706168
:102CB0007C4A083A516070E07A493C31884208D138
:102CC00078490839496841F47041764A083A5160B8
:102CD00063E074495031884208D172490839496823
:102CE00041F470216F4A083A516056E06D496431F1
:102CF000884208D16B490839496841F47001694A32
:102D0000083A516049E067497831884208D16549FD
:102D10000839496841F07061624A083A51603CE004
:102D20006149884206D1011F096841F00F01021F65
:102D3000116032E05C491431884208D15A49091FB8
:102D4000096841F0F001584A121F116025E0564908
:102D50002831884208D15449091F096841F470613B
:102D6000514A121F116018E04F493C31884208D186
:102D70004D49091F096841F470414B4A121F116007
:102D80000BE049495031884207D14749091F09687A
:102D900041F47021444A121F1160704710B500229F
:102DA000026847F6F0739A430C6A8B6823430C69F8
:102DB00023434C6923438C692343CC6923434C6AE6
:102DC00023438C6A23431A430260CB6843600B6839
:102DD00083604B68C36010BD002101604160816069
:102DE000C160016141618161C161016241628162D1
:102DF000704721B1026842F00102026004E00268FB
:102E00004FF6FE731A40026070471AB103680B4315
:102E1000036002E003688B430360704741607047C2
:102E20000146486880B2704701460020002201F048
:102E300080531BB11C4B083B1A6802E0194B083B3E
:102E40001A6802EA01030BB1012000E0002070477C
:102E500000F0805119B11449091F086002E01149BE
:102E600008394860704701460020002201F0805375
:102E70001BB10D4B083B1A6802E00A4B083B1A686D
:102E800002EA01030BB1012000E00020704700F0CE
:102E9000805119B10449091F086002E0014908394D
:102EA00048607047080002400804024010B504461C
:102EB000FA48844208D101214015FFF711FC002196
:102EC0006015FFF70DFC17E0F548844208D1012199
:102ED0000015FFF705FC00212015FFF701FC0BE0B2
:102EE000F048844208D10121C803FFF7F9FB002113
:102EF0004FF40040FFF7F4FB10BD30B50246002050
:102F000000235068E84C20400D790C6844EA052401
:102F1000204350609068E54C2040D1E902542C4396
:102F20004D7944EA450420439060D06A20F4700053
:102F30000C7C641EE4B2234340EA0350D06230BDEF
:102F400000210160017141718160C1600121017442
:102F5000704721B1826842F00102826003E082681A
:102F600022F001028260704721B1826842F48072CF
:102F7000826003E0826822F480728260704710B53C
:102F80000023CBB21AB144681C43446002E0446899
:102F90009C43446010BD816841F008018160704726
:102FA000014600208A6802F008020AB1012000E010
:102FB00000207047816841F004018160704701463C
:102FC00000208A6802F004020AB1012000E000201B
:102FD000704721B1826842F4A002826003E08268F7
:102FE00022F4A00282607047014600208A6802F441
:102FF00080020AB1012000E00020704710B50A46A7
:1030000000210023416821F46041531E41EA43310D
:10301000416010BD21B1426842F40062426003E0A9
:10302000426822F4006242607047F0B504460D46E3
:1030300000200021092D11DDE068A5F10A0606EB4C
:103040004607072606FA07F18843A5F10A0606EBAC
:10305000460603FA06F10843E0600CE0206905EB40
:103060004507072606FA07F1884305EB450603FAEC
:1030700006F108432061072A0FDA606B561E06EB43
:1030800086071F2606FA07F18843561E06EB8606BA
:1030900005FA06F10843606322E00D2A0FDA206B7F
:1030A000D61F06EB86071F2606FA07F18843D61FB0
:1030B00006EB860605FA06F10843206310E0E06A95
:1030C000A2F10D0606EB86071F2606FA07F18843D4
:1030D000A2F10D0606EB860605FA06F10843E0624A
:1030E000F0BD21B1826842F48012826003E0826800
:1030F00022F48012826070470146C86C80B270472B
:1031000066484C300068704721B1426842F48062E2
:10311000426003E0426822F480624260704721B15D
:10312000426842F48052426003E0426822F48052D6
:10313000426070470A460021816821F4E041114352
:103140008160704721B1826842F40042826003E0EE
:10315000826822F400428260704721B1826842F4A2
:103160000212826003E0826822F4021282607047D9
:10317000014600208A6802F400120AB1012000E032
:1031800000207047F0B504461546002000220026B6
:10319000092911DDE068A1F10A0707EB470C0727B1
:1031A00007FA0CF29043A1F10A0707EB470703FA6D
:1031B00007F21043E0600CE0206901EB410C0727A7
:1031C00007FA0CF2904301EB410703FA07F21043B0
:1031D0002061A06BC0F30156EF1C06F1010CA7EBB8
:1031E0000C0707EB870C1F2707FA0CF29043EF1C24
:1031F00006F1010CA7EB0C0707EB870701FA07F2B2
:103200001043A063F0BD10B50A4600210023816B76
:1032100021F44011531E41EA0351816310BD08B5EA
:10322000002300930090009B0B440093009B1A60C6
:1032300008BD08B5024600200090009201F1280068
:10324000009B184400900098006880B208BD0A46B0
:1032500000214168164B194011434160704741629B
:10326000826270470A460021416821F01F01114324
:103270004160704740B109490831096841F40001D3
:10328000064A0832116007E004490831096821F450
:103290000001024A0832116070470000002401401A
:1032A00000280140003C0140FFFEF0FFFDF7F1FF68
:1032B000FFFD3FFF0246002013680B400BB10120C9
:1032C00000E000207047CA430260704770B50246B4
:1032D0000020002300240B125568CEB205EA060434
:1032E00015681D4015B10CB1012000E0002070BD33
:1032F00000220A12D34303607047000010B58021FA
:10330000BC4801F08EFC0020BB49088010BDBA48C3
:10331000008808B901207047B7480088B749098874
:10332000884203D10020B4490880F4E7B2480088FD
:10333000B24908800120EEE770B504460D4600262C
:103340000DE014F8011BAE48FFF750FB00BF402111
:10335000AB48FFF7B9FB0028F9D0701C86B2AE422B
:10336000EFDB70BD2DE9F04105460E4614462846B8
:1033700001F08AFC87B239462846FFF7DDFF0FE0EF
:10338000FFF7C5FF48B931469A4801F061FC20B10A
:10339000FFF7B4FF0020BDE8F0810A20FEF78BFDA7
:1033A000201EA4F101018CB2EAD10120F3E730B56F
:1033B00089B005460C46FFF7A1FF224691A101A85E
:1033C00002F0F0F9C82293A101A8FFF7CBFF18B9CA
:1033D00021462846FFF7B0FF09B030BD70B505465D
:1033E000002400BFFFF793FFA0B98BA1814801F033
:1033F0002FFC04461CB98AA002F0C4F90AE03A2165
:10340000204601F037FC044614B1641C204670BD10
:103410000020FCE70520FEF74EFD281EA5F1010166
:103420008DB2DFD100BFF2E708B520218148FEF759
:1034300014FF002820D10A20FEF73DFD20217D4801
:10344000FEF70BFFC0B97CA000231F225A21009079
:103450000420FDF7A5FD00BF4FF4487278A17BA0C2
:10346000FFF780FF0028F7D100BFC8227CA17DA014
:10347000FFF778FF0028F8D100BF4FF4C87270A1A1
:103480007DA0FFF76FFF0028F7D108BD1CB5012113
:103490000420FFF70BF910208DF807000001ADF8AC
:1034A000040003208DF8060001A96248FEF742FEE1
:1034B000002210215F48FEF7EEFEFA20FEF7FBFC2B
:1034C000012210215B48FEF7E6FE4FF4FA70FEF78A
:1034D000F2FCFFF713FFFFF7A7FF6AA002F052F913
:1034E0006BA04EF67D734FF4784246210090042085
:1034F000FDF756FD03E04FF4FA70FEF7DCFCC8223E
:1035000066A168A0FFF72EFF0028F4D170A002F09A
:1035100039F91CBD10B586B0044601210420FFF71F
:10352000C5F801214804FFF7CEF818208DF81700E0
:103530000420ADF8140003208DF8160005A93D48BD
:10354000FEF7F8FD04208DF817000820ADF81400F0
:1035500003208DF8160005A93648FEF7EBFD01940F
:103560000020ADF810000C20ADF80E000020ADF8E2
:103570000C00ADF80A00ADF8080001A92048FFF7DB
:103580003CF901211E48FFF7C4F9012240F2255100
:103590001B48FFF7CAF926208DF8000001208DF89E
:1035A000030000208DF801008DF802006846FFF747
:1035B000EAFA06B010BD10B540F225511048FFF7E9
:1035C00099FAB0B10C480088802802D300200A493B
:1035D00008800B48001D0088C1B207480288008897
:1035E000401C054B18800348815420210448FFF7F4
:1035F00078FA10BD3001002056000020580000204D
:103600000044004041542B43495053454E443D250E
:10361000640D0A003E0000004950442C00000000E8
:103620002249504422206E6F7420666F756E640DBF
:103630000A000000000801404169724B6973730081
:103640005749464920474F542049500041542B4385
:10365000575354415254534D4152540D0A000000E7
:103660004F4B000041542B435753544F50534D413F
:1036700052540D0A0000000041542B5253540D0ABD
:103680000000000043495053544152540D0A0000B9
:10369000434950535441525420000000434F4E4E72
:1036A0004543540041542B43495053544152543DD7
:1036B00022544350222C223138332E3233302E34D0
:1036C000302E3339222C363030320D0A0000000003
:1036D0004553503832363620496E6974204F4B0DB1
:1036E0000A00000070B504460E460025206898B90F
:1036F00001202073304602F083FD20602068E0B195
:1037000000206060A66003E00020216848556D1C21
:10371000A068A842F8D810E00220207303E000203F
:10372000216848556D1CA068A842F8D80020606048
:10373000A068B04201D20020206070BD10B50446E0
:10374000207B012802D1206802F032FD0020206099
:103750006060A060207310BD0246002301230DE0CD
:1037600002F07F000870D2092AB1087840F080008A
:103770000870491C01E0184670475B1C042BEFDD04
:103780004FF0FF30F8E7F0B504460D46264601231A
:1037900000201060002114E0775C07F07F071068BC
:1037A00007FB03001060705C00F0800008B9481C43
:1037B000F0BDDB01B3F5001F02D36FF00100F7E7A6
:1037C000491CA942E8DB4FF0FF30F1E7F8B50446A9
:1037D000FF2720780511012D01DB0E2D01DD384674
:1037E000F8BD032D24D1002000906A460421601CFE
:1037F000FFF7C9FF2044461C0098022803D3207815
:1038000000F0010008B1FF20EAE77078317840EA63
:103810000120801C0099884201D9FF20E0E7F8A12F
:10382000B01C01F015FA08B10F2700E0032700E0F3
:103830002F463846D4E72DE9FF4F83B082468B46AA
:103840009146159C0025002002900F2701904846C4
:1038500001F01AFA0FFA80F8B9F1000F03D1012034
:1038600007B0BDE8F08F08F10200384487B2109825
:1038700008B145F00205129878B145F00405129898
:1038800001F002FAC0B20290139801F0FDF901466E
:103890000298001D0844384487B2119820B10128CD
:1038A00004D0022808D104E000BF07E045F00C0571
:1038B00004E045F0140501E00220D1E700BF1498B0
:1038C00008B145F02405BAF1000F02D0BBF1000F9A
:1038D00001D10320C4E745F0C005504601F0D4F9FA
:1038E0000646584601F0D0F93044001D384487B2EE
:1038F00039462046FFF7F6FE206808B90420AFE7F6
:103900003946206801F08DF910216268501C606012
:1039100020688154D4E90023D118781FFFF71CFFD9
:1039200000B201900198002804DA2046FFF706FF54
:10393000052095E76168019808446060002162688D
:10394000501C60602068815404216268501C6060D3
:10395000206881544D216268501C60602068815449
:1039600051216268501C6060206881545421626853
:10397000501C6060206881546268501C6060206840
:10398000815404216268501C606020688154616821
:10399000481C6060206845540698010A6268501C03
:1039A0006060206881540698C1B26268501C6060F3
:1039B00020688154C8F307216268501C6060206849
:1039C00081546268501C6060206800F80280D4E96D
:1039D000001288184246494601F05DF9606840448B
:1039E000606005F00400B8B30026139808B986A0FB
:1039F0001390129801F048F986B2310A6268501C9F
:103A00006060206881546268501C60602068865441
:103A1000D4E9001288183246129901F03CF9606826
:103A200030446060139801F02FF986B2310A626861
:103A3000501C6060206881546268501C606020687F
:103A40008654D4E9001288183246139901F023F9FC
:103A500060683044606000BF05F08000C8B1504627
:103A600001F012F986B2310A6268501C6060206869
:103A700081546268501C606020688654D4E900124A
:103A800088183246514601F006F96068304460609B
:103A900000BF05F04000C8B1584601F0F5F886B205
:103AA000310A6268501C6060206881546268501C52
:103AB000606020688654D4E900128818324659465E
:103AC00001F0E9F860683044606000BF0020C7E69C
:103AD00010B5044602212046FFF704FE206808B90D
:103AE000012010BDE0216268501C60602068815494
:103AF00000216268501C6060206881540020F0E75B
:103B000001464878022801D001207047887810B11A
:103B10008878012801D1C878F7E7FF20F5E72DE97B
:103B2000FF4F83B0834690469946139C002600259C
:103B30000020029001900027BBF1000F03D101206B
:103B400007B0BDE8F08F00250AE00498405D232807
:103B500003D00498405D2B2801D10220F0E76D1CB2
:103B60000498405D0028F0D147F03007119808B163
:103B700047F0010705EB0900861C109820B10128C9
:103B800004D002280AD105E000BF09E047F002078F
:103B9000B61C05E047F00407B61C01E00320CFE7A0
:103BA00000BF98F80000022822D14FF0000A00BFA1
:103BB00050460AF1010A18F800007D28F8D1AAF150
:103BC000030A0AF1070002900298A9EB000AF01C10
:103BD000A0EB0A012046FFF785FD206808B9042004
:103BE000AEE7F21CA2EB0A01206801F01AF811E01E
:103BF000F11C2046FFF776FD206838B904209FE7C6
:103C0000246372657100000000000000F11C206850
:103C100001F007F86168481C606020684754D4E9E7
:103C2000000281183046FFF797FD019001980028A7
:103C300004DA2046FFF782FD052081E761680198DC
:103C400008446060C5F307216268501C606020680A
:103C500081546268501C606020688554D4E9001269
:103C600088182A46049901F016F8606828446060B4
:103C7000109860B14FEA1B216268501C6060206898
:103C800081546268501C6060206800F802B0B8F18E
:103C9000000F19D098F8000002280BD1D4E90012C7
:103CA00088184146029A00F0A3FF61680298084410
:103CB000606009E0D4E9001288184A46414600F0E5
:103CC00097FF606848446060002039E72DE9FF41B4
:103CD00007460D4690461E460A9C01200021CDE96C
:103CE0000001EB1C0A46FAA1CDE902040A20FFF705
:103CF00016FF88B96168481C606020684654C5F3A7
:103D000007216268501C6060206881546268501C02
:103D100060602068855403E0012004B0BDE8F081B4
:103D20000020FAE72DE9F04F85B080460D46914618
:103D3000012004900027002600244FF0000A40468E
:103D400000F0A2FF00F10D0B584602F059FA0746A9
:103D50001FB9049805B0BDE8F08F4246DDA1384692
:103D600001F020FD384600F08FFFC6B2F01D00EBD9
:103D7000050AAAEB050002F043FA044624B93846C6
:103D800002F016FA0498E5E7022020700020607027
:103D9000A67032463946E01C00F02AFF290EF01CBE
:103DA0002154C5F30741301D2154C5F30721701D6F
:103DB0002154B01D255401200021CDE900015346B6
:103DC0002246C3A1CDE902090A20FFF7A8FE08B9DF
:103DD00000200490384602F0EBF9204602F0E8F9A2
:103DE0000498B7E72DE9F84380460C4615461E4671
:103DF0002F2108F1060000F03DFF0746002000904B
:103E000017B90120BDE8F8837F1C6A46042108F138
:103E10000100FFF7B8FC252002F0F2F920602068CD
:103E200008B90220EEE72521206800F0FAFE2422DE
:103E30003946206800F0DCFE243700982C383080AA
:103E40003188481C02F0DCF92860286820B9206815
:103E500002F0AEF90320D5E73288511C286800F043
:103E6000E0FE32883946286800F0C2FE0020C9E72B
:103E70002DE9FF5F07460D469046384600F004FFE7
:103E800086B2284600F000FF1FFA80FA4FF00009C2
:103E9000B01D02F0B5F904461CB9012004B0BDE81C
:103EA000F09FB11D204600F0BCFE8EA0016821608D
:103EB0008088A08032463946204600F0ECFE284635
:103EC00000F0E2FE83460120002100915B462A4675
:103ED000CDE90208019121460A20FFF720FE10B922
:103EE0004FF0000901E04FF00109204602F060F9AF
:103EF0004846D3E72DE9FF5F8046174699460E9C5A
:103F00000026B246B3460025B8F1000F03D10120C8
:103F100004B0BDE8F09F0BE057F8250008B9022077
:103F2000F6E757F8250000F0AFFE0644681CC5B25E
:103F30004D45F1DB09EB4900801C00EB060A0AF154
:103F400005012046FFF7CEFB206808B90320DFE714
:103F500082216268501C606020688154D4E90002AC
:103F600081185046FFF7F8FB0FFA80FBBBF1000FFA
:103F700004DA2046FFF7E2FB0420C9E760685844F2
:103F800060604FEA18216268501C606020688154AC
:103F90006268501C6060206800F80280002524E000
:103FA00057F8250000F070FE0646C6F30721626848
:103FB000501C6060206881546268501C60602068FA
:103FC0008654D4E90023D01857F82510324600F063
:103FD00062FE6068304460600198C1B26268501C43
:103FE000606020688154681CC5B24D45D8DB002054
:103FF0008EE70146FF208A78A2B9CA78142A11D127
:104000000A7932B1012A05D0022A04D0802A06D1C9
:1040100003E000BF00BF002003E0012001E0022018
:1040200000BF00BF70472DE9F05F80460F46914604
:104030001C460026B246B3460025B8F1000F02D157
:104040000120BDE8F09F0BE057F8250008B90220D9
:10405000F7E757F8250000F017FE0644681CC5B2C4
:104060004D45F1DB022000EB490000EB060A0AF1A6
:1040700005012046FFF736FB206808B90320E0E77A
:10408000A2216268501C606020688154D4E900025B
:1040900081185046FFF760FB0FFA80FBBBF1000F61
:1040A00004DA2046FFF74AFB0420CAE76068584458
:1040B00060604FEA18216268501C6060206881547B
:1040C0006268501C6060206800F8028000252BE0C8
:1040D000246470007B2264735F6964223A22257332
:1040E000227D000024637273702F000057F82500B2
:1040F00000F0CAFD0646C6F307216268501C6060E6
:10410000206881546268501C606020688654D4E93D
:104110000023D01857F82510324600F0BCFD606827
:1041200030446060681CC5B24D45DFDB002088E785
:10413000014601208A781AB9CA781E2A00D10020C7
:1041400070472DE9FC5F81460D4614461E46DDE9A9
:104150000C8B99F8000000F00F0A002001900AF083
:1041600008000090CAF341008BF8000001AA042166
:1041700009F10100FFF707FB4844471C019802289A
:1041800002D30AF0010010B1FF20BDE8FC9F78784F
:10419000397840EA012020802088801C01998842DB
:1041A00001D9FF20F1E7AFF2A851B81C00F050FD93
:1041B00008B10F20E9E79BF8000020B101283DD0AD
:1041C000022877D13BE0009808B1FF20DDE7218885
:1041D000481C02F015F82860286808B9FF20D4E7C9
:1041E0002288511C286800F01CFD2288B91C286810
:1041F00000F0FEFC0198801E2188401AA8F80000FB
:10420000B8F80010481C01F0FBFF3060306820B99E
:10421000286801F0CDFFFF20B7E7B8F80020511C57
:10422000306800F0FEFCB8F80020B4F800C0BB1CF9
:104230000CEB0301306800F0DBFC4FE000BF20888E
:10424000801C0199884201D9FF209EE72088C01C6C
:10425000395C2088801C385C41EA00210E9801807E
:104260000E9808B9FF2090E72188481C01F0C8FF8C
:104270002860286808B9FF2087E72288511C286831
:1042800000F0CFFC2288B91C286800F0B1FC01982E
:10429000001F2188401AA8F80000B8F80010481C38
:1042A00001F0AEFF3060306828B9286801F080FF67
:1042B000FF206AE710E0B8F80020511C306800F0D9
:1042C000B0FCB8F80020B4F800C03B1D0CEB0301B3
:1042D000306800F08DFC01E0FF2056E700BF2B2185
:1042E000284600F0C7FC20B92321284600F0C2FC74
:1042F00008B1FF2049E7002047E770B505460C46A6
:1043000004212046FFF7EEF9206808B9012070BDAE
:1043100040216268501C60602068815402216268FC
:10432000501C60602068815429126268501C6060D3
:10433000206881546268501C6060206885540020A9
:10434000E5E701464878022801D0012070478878C7
:1043500020B9C8780A2801D10020F7E70120F5E745
:1043600070B505460C4604212046FFF7BBF92068CE
:1043700008B9012070BD50216268501C606020683F
:10438000815402216268501C6060206881542912A7
:104390006268501C6060206881546268501C6060D4
:1043A000206885540020E5E701464878022801D0BE
:1043B00001207047887820B9C8780A2801D10020E8
:1043C000F7E70120F5E770B505460C4604212046C5
:1043D000FFF788F9206808B9012070BD6221626882
:1043E000501C60602068815402216268501C60602B
:1043F0002068815429126268501C606020688154D2
:104400006268501C6060206885540020E5E7024621
:104410005078022801D0012070479078B0EB112F1E
:1044200005D1D078CBB2984201D10020F4E7012029
:10443000F2E770B505460C4604212046FFF752F915
:10444000206808B9012070BD70216268501C60604E
:104450002068815402216268501C60602068815489
:1044600029126268501C6060206881546268501C88
:104470006060206885540020E5E7014648780228FE
:1044800001D001207047887820B9C8780A2801D166
:104490000020F7E70120F5E710B504460221204689
:1044A000FFF720F9206808B9012010BDC02162681B
:1044B000501C60602068815400216268501C60605C
:1044C000206881540020F0E730B58BB000200790C1
:1044D000089009900A900125D4A3D7A2D8A1DAA008
:1044E00001F050F907A8002102910391CDE90410D1
:1044F00000912B02CDA20191CFA1D1A0FFF79BF992
:1045000000283BD1089A91B20798FEF750FFFA2095
:10451000FEF764FF0446002C2CD02046FFF756F926
:10452000022827D12046FFF7EBFA06281DD2DFE844
:1045300000F003080C101418CFA001F023F9002597
:1045400017E0D2A001F01EF913E0D7A001F01AF98C
:104550000FE0DEA001F016F90BE0E4A001F012F983
:1045600007E0EBA001F00EF903E0F4A001F00AF976
:1045700000BF00BF07A8FFF7E1F802E0F6A001F0D6
:1045800001F928460BB030BD70B588B00446202133
:10459000684600F046FBF9A1204600F090FB202180
:1045A000684600F03EFBF649086800F02FFE05461D
:1045B0002A460B46F3A1684601F0F4F86946204606
:1045C00000F03AFB2021684600F02BFBEC494868DC
:1045D00000F01CFE05462A460B46EDA1684601F098
:1045E000E1F86946204600F027FB2021684600F0EC
:1045F00018FBE349886800F009FE05462A460B4689
:10460000E6A1684601F0CEF86946204600F014FBAA
:104610002021684600F005FBD949C86800F0F6FD86
:1046200005462A460B46E0A1684601F0BBF86946FC
:10463000204600F001FB2021684600F0F2FAD04845
:10464000027CDCA1684601F0ADF86946204600F026
:10465000F3FA2021684600F0E4FAC948427CD7A169
:10466000684601F09FF86946204600F0E5FA2021EF
:10467000684600F0D6FAC248827CD2A1684601F0B2
:1046800091F86946204600F0D7FA2021684600F0EC
:10469000C8FABB48C27CCEA1684601F083F86946DF
:1046A000204600F0C9FA2021684600F0BAFAB44862
:1046B000C28ACAA1684601F075F86946204600F032
:1046C000BBFA2021684600F0ACFAAD48828AC6A148
:1046D000684601F067F86946204600F0ADFA2021EF
:1046E000684600F09EFAA648027EC3A1684601F023
:1046F00059F86946204600F09FFA2021684600F0EC
:1047000090FA9F48427EC0A1684601F04BF8694686
:10471000204600F091FA204600F0B6FAC0B208B088
:1047200070BD30B5C5B00020419042904390449098
:1047300000240025B8A001F025F84FF4807101A8ED
:1047400000F06FFA01A8FFF71FFF0446002C2AD0E3
:1047500041A8052300222146009034A0FFF7B6FAB5
:10476000D8B908E001A8415D429A501C4290419896
:104770008154681C05B2A542F4DB429A91B241987B
:10478000FEF715FEACA0429900F0FCFF0020AE49F8
:10479000086041A8FEF7D2FF05E0ACA000F0F2FFF0
:1047A0000120A949086045B030BD2DE9F0418AB02B
:1047B000804600200690079008900990059004908C
:1047C000039000260027002500244046FEF7FEFF48
:1047D0000646042E22D00F2E26D103AB05AA04A92B
:1047E0004046FFF7FFFA0746BFB9BDF80C309FA05F
:1047F000DDE9041200F0C6FF06AADDE90401FFF7B7
:1048000037FB50B9A2A000F0BDFF079A91B20698FD
:10481000FEF7CDFD06A8FEF791FF4CE14046FFF7FD
:1048200090FD00B940E142E142E100003639323703
:10483000323530393900000074657374303100004E
:1048400034303833313400004F6E654E65745F4448
:1048500065764C696E6B0D0A50524F49443A2025DB
:10486000732C09415549463A2025732C0944455675
:1048700049443A25730D0A00546970733A09C1AC72
:10488000BDD3B3C9B9A60D0A000000005741524E6E
:104890003A09C1ACBDD3CAA7B0DCA3BAD0ADD2E946
:1048A000B4EDCEF30D0A00005741524E3A09C1ACA7
:1048B000BDD3CAA7B0DCA3BAB7C7B7A8B5C4636CE9
:1048C00069656E7469640D0A000000005741524E1C
:1048D0003A09C1ACBDD3CAA7B0DCA3BAB7FECEF1CA
:1048E000C6F7CAA7B0DC0D0A000000005741524EBF
:1048F0003A09C1ACBDD3CAA7B0DCA3BAD3C3BBA726
:10490000C3FBBBF2C3DCC2EBB4EDCEF30D0A000077
:104910005741524E3A09C1ACBDD3CAA7B0DCA3BAC5
:10492000B7C7B7A8C1B4BDD328B1C8C8E7746F6B07
:10493000656EB7C7B7A8290D0A0000004552523A64
:1049400009C1ACBDD3CAA7B0DCA3BACEB4D6AAB451
:10495000EDCEF30D0A0000005741524E3A094D5179
:1049600054545F5061636B6574436F6E6E6563741E
:10497000204661696C65640D0A0000002C3B000054
:104980000000002074656D702C252E32663B0000FF
:1049900068756D692C252E32663B00006C6967686E
:1049A000742C252E31663B006D712C252E31663B13
:1049B000000000006C65642C25643B0066616E2C71
:1049C00025643B006D6F746F722C25643B00000002
:1049D00072656C61792C25643B0000006D61785F25
:1049E0006D712C25643B00006D61785F74656D709E
:1049F0002C25643B00000000616C61726D5F746582
:104A00006D702C25643B0000616C61726D5F6D718F
:104A10002C25643B00000000546970733A094F6E06
:104A2000654E65745F53656E64446174612D4D51CC
:104A300054540D0A0000000053656E642025642064
:104A400042797465730D0A00B40122425741524EF7
:104A50003A094544505F4E65774275666665722037
:104A60004661696C65640D0A00000000636D64694D
:104A7000643A2025732C207265713A2025732C200E
:104A80007265715F6C656E3A2025640D0A00000046
:104A9000546970733A0953656E6420436D645265BE
:104AA00073700D0A000000003AA000F06BFE02E0F7
:104AB0004FF0FF3700BF00BFFEF720FC781C10B995
:104AC0000AB0BDE8F0813A21059800F0D3F8054618
:104AD000002D53D0781C002850D06D1C05E015F82F
:104AE000012B2046641C0DF800202878302802DBBA
:104AF00028783928F3DD00200DF80400684600F01E
:104B0000E7F804462BA1059800F0A2F820B12A4945
:104B10000C742A4804602EE029A1059800F098F84A
:104B200028B12549CC7425482430046023E026A10F
:104B3000059800F08DF820B11F494C74234804609B
:104B400019E023A1059800F083F828B11A498C7464
:104B5000E0B2FCF76FFF0EE01FA1059800F078F8B7
:104B600010B115498C8206E01EA1059800F070F87E
:104B700008B11149CC8201201C4908700F2E01D0C8
:104B8000032E05D1049801F013FB059801F010FBEA
:104B900000BF95E7546970733A094D515454205041
:104BA00075626C6973682053656E64204F4B0D0A03
:104BB000000000006C65640000000020808121423C
:104BC00072656C617900000066616E00A00121428F
:104BD0006D6F746F720000006D61785F74656D7049
:104BE000000000006D61785F6D7100001C00002006
:104BF00040EA01039B0703D009E008C9121F08C05F
:104C0000042AFAD203E011F8013B00F8013B521EDE
:104C1000F9D27047D2B201E000F8012B491EFBD255
:104C200070470022F6E710B513460A4604461946B7
:104C3000FFF7F0FF204610BD421E12F8013F002B87
:104C4000FBD111F8013B02F8013B002BF9D1704771
:104C500030B505462A460B4612F8010B13F8014BF6
:104C600008B1A042F8D01CB1002802D06D1CF1E7B9
:104C7000284630BDCAB2401E10F8011F8A4202D039
:104C80000029F9D100207047421C10F8011B0029AF
:104C9000FBD1801A704710B5044600E0401C037831
:104CA000002BFBD100E0401C521E04D311F8013B45
:104CB0000370002BF7D100210170204610BD034680
:104CC00011F8012B00F8012B002AF9D11846704782
:104CD00070B5064600F08EFD046805460A220021E4
:104CE000304600F067FB2C6070BDF0B480EA010232
:104CF000D40F4200B2EB410F02D2024608461146E1
:104D00004A0042D0C30DDDB2C1F3C752AD1A202D07
:104D100035DAC1F3160141F4000204B15242C5F183
:104D2000200602FA06F12A411044B3EBD05F23D0EB
:104D3000C4B1012DA0EBC35009DCF0BC4FF0004220
:104D400002EAC352DBB200F5000000F074BB400081
:104D500000F1807000EBC350A0F1807040EAD17088
:104D6000490009E0490841EAC071A0EBC35000F5D1
:104D70000000400800EBC350F0BC00F053BB6142A0
:104D8000012202EB4101001BF6E7F0BC704781F005
:104D90000041AAE780F00040A7E780EA010210B5D1
:104DA00002F00043400022D04A001FD0010E01EB68
:104DB0001261C0F35600C2F3560240F4000042F400
:104DC0000002A0FB022000047F39140400D0401C24
:104DD00050EA124001D44000491EC2B20C0604EB56
:104DE000D010401C4008802A02D003E0002010BDF3
:104DF00020F00100002900DA0020184310BD30B473
:104E000080EA010202F0004530F0004221F000404B
:104E100013D090B1C30DD40DC2F31601C0F3160028
:104E2000E41A41F4000140F400027D34914201D3C0
:104E3000641C00E04900002C02DA30BC00207047FE
:104E40004FF400000023914201D3891A0343400824
:104E50004FEA4101F7D151B1914202D14FF00041E7
:104E600005E002D24FF0010101E06FF0010103EB18
:104E7000C450284430BC00F0D5BA2DE9FE4F80461E
:104E800081EA0300C00F0C46009021F0004123F09E
:104E90000045B8EB0200A94105D2404621469046A4
:104EA0001C460B46024623F00040104347D0270D16
:104EB000C7F30A00C3F30A510290401A0190402838
:104EC0006BDAC3F3130040F4801B0098924620B1C4
:104ED0000023D2EB030A63EB0B0B01985946C0F198
:104EE0004002504600F035FA06460D4650465946F7
:104EF000019A00F04DFA10EB08006141002487EAA6
:104F0000115284EAE7731A4340D0009A62B3019ABF
:104F1000012A4FEA075215DC001B61EB02014FF03A
:104F2000004202EA0752CDE90042001C41F580111F
:104F300032462B4600F0BCFA03B0BDE8F08F404685
:104F40002146F9E7001B61EB0201001C41F58013CB
:104F500000185B412018A2F5001747EB030140EA57
:104F6000D570B6196D4111E06D084FEA360645EA75
:104F7000C0754FEA0752001B61EB0201001C41F5AE
:104F8000801149084FEA30000019514132462B4642
:104F900003B0BDE8F04F00F07CBA00980122400059
:104FA0000023D0EB020263EBE073009821464FEA46
:104FB000E074B8EB000061EB0401E9E783F0004323
:104FC0005BE781F0004158E72DE9FE4F81EA0304D9
:104FD00004F0004421F0004100944FF0000B23F056
:104FE000004350EA01045ED052EA03045BD0C3F3ED
:104FF0000A54C1F30A552C44A4F2F3340194A0FBE3
:105000000254C1F3130141F48011C3F3130343F4B9
:10501000801301FB024400FB034E840A970A44EA12
:10502000815447EA8357A4FB076802958D0A05FB64
:1050300007854FEA932C04FB0C542705029D4FEA89
:10504000065847EA1637B5EB08056EEB070C870ED6
:10505000920E47EA811742EA8312A7FB0201B6EBE0
:105060000B0164EB00042B0D43EA0C335E1844EB98
:105070001C50DA465146E7FB0201C5F313044FEA20
:105080000B3343EA14534FEA0432019C43EA06030C
:10509000A4F10C040294009CCDE900B400F008FADD
:1050A00003B0BDE8F08F00200146F9E72DE9F04D8F
:1050B00081EA030404F0004B21F0004514464FF050
:1050C000000A23F0004150EA050220D054EA010210
:1050D0001DD0C5F30A570246C5F31303C1F31300ED
:1050E000C1F30A5640F4801543F48013A7EB060879
:1050F000101BD64608F2FD3873EB050002D308F109
:10510000010801E092185B41B8F1000F03DA0020BA
:105110000146BDE8F08D00204FF48011064684461C
:105120000EE0171B73EB050705D3121B63EB05039A
:1051300006434CEA010C49084FEA300092185B41E3
:1051400050EA0107EDD152EA030012D082EA0400CE
:1051500083EA0501084305D0101BAB4106D20122AA
:10516000002306E000224FF0004302E06FF001024E
:1051700053101AEB06004CEB085110EB0A0041EB00
:105180000B01BDE8F04D00F084B9C10F80EAE0707A
:105190000844CA079623002100F04DB99623002247
:1051A000114600F048B920F00040C10DC0F31600D0
:1051B00040F400007F2901DA00207047962903DCC3
:1051C000C1F19601C840704796398840704770B564
:1051D000C1F30A5201F000450024C1F3130140F26B
:1051E000FF3341F480119A4201DA002070BD40F291
:1051F00033439A42A2F2334203DC524200F0B8F841
:1052000000E090402C43F1D0404270BD00F00042DD
:1052100030F000400AD0C10D01F56071C0F31600F6
:1052200042EA0151C208400711437047002001467D
:105230007047000030B5041E71F1000404DB4FF02C
:105240000044404264EB0101141E73F1000405DBCD
:105250001C464FF00043524263EB04038B4208BFED
:10526000824230BD01F0004330B421F0004150EAE9
:10527000010206D00A0DA2F56072C1F31301002AE3
:1052800002DC30BC00207047440F44EAC104C10076
:10529000E01830BC00EBC25000F0C4B8002801DBBD
:1052A000C0F10040002901DBC1F10041814270479B
:1052B000002801DBC0F10040002901DBC1F1004101
:1052C0008842704730B50B46014600202022012459
:1052D00009E021FA02F59D4205D303FA02F5491BC4
:1052E00004FA02F52844151EA2F10102F1DC30BDDA
:1052F0002DE9F05F0546002092469B46884606460B
:10530000814640241BE0284641464746224600F09D
:105310002FF853465A46C01A914110D311461846E9
:10532000224600F016F82D1A67EB01084F46224678
:105330000120002100F00DF817EB00094E41201E5E
:10534000A4F10104DFDC484631462A464346BDE865
:10535000F09F202A04DB203A00FA02F10020704777
:105360009140C2F1200320FA03F3194390407047A3
:10537000202A04DB203A21FA02F00021704721FAAA
:1053800002F3D040C2F12002914008431946704711
:10539000202A06DBCB17203A41FA02F043EAE073F9
:1053A00006E041FA02F3D040C2F1200291400843E6
:1053B000194670472DE9F04791460F46804604464E
:1053C000002614F8015B2DB100F02AF90068405D59
:1053D000C007F6D12B2D02D02D2D18D0641E4A46C1
:1053E0003946204600F020F927B13968A14201D1A1
:1053F000C7F8008071054FF002040BD54042002829
:1054000003DD00F0F7F90460A007BDE8F08746F47B
:105410008066E4E70028F8DA00F0ECF904606FF049
:105420000040F2E70029A8BF7047401C490008BFB0
:1054300020F00100704710B4B0FA80FC00FA0CF0C4
:1054400050EA010404BF10BC704749B1CCF12004FC
:1054500021FA04F411FA0CF118BF01212143084389
:10546000A3EB0C01CB1D4FEA00614FEA102042BFB5
:10547000002010BC704700EBC35010440029A4BFAB
:1054800010BC7047401C490008BF20F0010010BC50
:10549000704710B5141E73F1000408DA401C41F186
:1054A000000192185B411A4301D120F0010010BDA8
:1054B0002DE9F04D92469B4611B1B1FA81F202E01E
:1054C000B0FA80F220329046FFF743FF04460F46C1
:1054D00040EA0A0041EA0B0153465A46084313D0FA
:1054E000114653EA010019D0C8F140025046FFF7B7
:1054F0003FFF05460E46504659464246FFF729FFF4
:10550000084305D0012004E020463946BDE8F08D6F
:105510000020054346EAE0762C4337430A986305AA
:10552000E40AA0EB08000022FD0A44EA47540A30CE
:1055300002D500200146E9E7010510196941DDE9BE
:10554000084500196941BDE8F04DA2E770B521F0AA
:10555000004303430CD0C1F30A550024D5EB0405E6
:1055600064EB0403D617AD1AB34102DB00200146F9
:1055700070BD201841EB025170BD0EB5C10F80EA1D
:10558000E0700844CA07002140F233438DE80E0062
:105590000A460B46FFF78CFF03B000BDC1F30A5269
:1055A000C1F3130140F2FF3341F480119A4202DA51
:1055B00000200146704740F233439A42A2F2334240
:1055C00002DC5242FFF7D4BEFFF7C3BE30B5041E63
:1055D00071F1000404DB4FF00044404264EB010130
:1055E000141E73F1000405DB1C464FF000435242C9
:1055F00063EB0403994208BF904230BD064C074D4F
:1056000006E0E06840F0010394E807009847103492
:10561000AC42F6D3FAF76EFD3080000850800008E7
:10562000004870472C8000082DE9F05F8246007822
:10563000002715468B460AF10104B946302801D0EF
:105640009DB113E014F8010B0127782803D05828E6
:1056500001D045B10AE00DB1102D07D1002710256A
:1056600014F8010B02E0082500E00A250026B046E8
:105670000EE005FB080005FB06F1012701EB1046D3
:105680001FFA80F8B6F5803F00D3B94614F8010B35
:10569000294600F069F80028EBDABBF1000F05D0CD
:1056A0000FB1641E00E05446CBF80040B9F1000F82
:1056B00006D000F09FF802210160C81EBDE8F09FEF
:1056C00048EA0640FAE72DE9F04D00231A461B1A76
:1056D0008A4103DB00200146BDE8F08DC1F30A5288
:1056E000C1F3130141F480154FF0000BD10702D133
:1056F00000186D41521E0027044640F2FF11384643
:1057000001EB620A3E468046024600204FF48011BB
:10571000FFF72EFEC2197141BB1846EB0100B4EB36
:10572000030C75EB000C04D3E41A65EB0005174677
:105730000E46241908F101006D4180463428E3DD4E
:10574000F91946EB0600091BA84103D24FF0FF32BE
:10575000134601E0002213461BEB070046EB0A51FB
:10576000BDE8F04DFFF795BE3A2800D2303820F062
:105770002002412A01D3A2F13700884201D34FF021
:10578000FF3070470FB4054B10B503A9044A0298C7
:1057900000F072F910BC5DF814FB0000151F000842
:1057A0003C0000200FB4084B10B504A902AA0398CE
:1057B00000F062F9044602A9002000F0F4FC204643
:1057C00010BC5DF814FB0000A7610008490050EA16
:1057D000C12018BF04204A0D18BF40F0010040F25C
:1057E000FF72B2EB515F08BF40F00200012808BF12
:1057F0000520704700487047640000202DE9F04103
:105800004F1E00EBC7010446D1E9000115461E46B4
:1058100037F006020DD02A463346FFF7D5FB7F1E30
:1058200004EBC703D3E90023FFF727FB37F0060299
:10583000F1D1022F25D0042F13D0062F18BFBDE8B9
:10584000F0812A463346FFF7BFFBD4E90A23FFF76E
:1058500014FB2A463346FFF7B7FBD4E90823FFF7CA
:105860000CFB2A463346FFF7AFFBD4E90623FFF7CC
:1058700004FB2A463346FFF7A7FBD4E90423FFF7CE
:10588000FCFA2A463346FFF79FFBD4E90223FFF7D1
:10589000F4FA2A463346FFF797FBD4E90023BDE824
:1058A000F041FFF7EABA0000002213461046014912
:1058B000FFF7FCBB0000F03FFFF7DFBA0022134602
:1058C00010461146FFF7F2BB40F2013200204FF0C4
:1058D000E041FFF73BBE0000024A00201107FFF73E
:1058E00035BE000001FDFFFF02E008C8121F08C11D
:1058F000002AFAD170477047002001E001C1121F51
:10590000002AFBD170470000014908607047000081
:10591000640000202DE9FF5FDDE90220010DDDF8C4
:1059200038B0024318D044F61050A1F2FF31414381
:105930000D140F98012820D0A5EB0B00401C5FEA46
:10594000000A4FF00004474EDFF81C91A046504675
:1059500016D5CAF1000728E00F98012443A20128B8
:1059600008D0002100980F9BC0E90021C0E9024344
:10597000BDE8FF9F6FEA0B01F4E7CBF10000DEE723
:10598000074612E0F80707D022463346404649460C
:10599000FFF71AFB804689462246334610461946D1
:1059A000FFF712FB04460E467F10002FEAD1DDE917
:1059B0000201BAF1000F42464B4602DAFFF704FB40
:1059C00001E0FFF773FB04460E460022284BFFF769
:1059D000FDFD03D84FF0FF30014607E00022254BC4
:1059E00020463146FFF749FAFFF7D8FD102409E0B9
:1059F000002C0ADB0A220023FFF77AFC019B3032DD
:105A00001A55641E50EA0102F2D1641C019AC4F1D5
:105A1000110314440F9A012A03D0012208430DD127
:105A20000AE0084304D000204FF0110B0F9080E7EC
:105A3000A3EB0B056D1E0DE05B4504DD4FF000028E
:105A400005F1010504E003DA4FF00002A5F10105BC
:105A5000002AECD000980F99C0E90231C0E9004556
:105A600086E70000000024400000F03F3000000006
:105A70000000F0430000E03F2DE9FF4F95B09B464A
:105A80008946064600250FE2252877D100242746BF
:105A9000F84A0121059400E0044316F8013F203B39
:105AA00001FA03F01042F7D130782A2811D06FF0B4
:105AB0002F033078A0F13002092A16D8059A44F055
:105AC000020402EB820203EB42021044761C0590B2
:105AD000EFE759F8042B0592002A03DA504244F408
