:020000040800F2
:100000008020002009270008390400083B0400086C
:100010003F040008430400084704000800000000F3
:100020000000000000000000000000004B04000879
:100030004D040008000000004F04000851040008AF
:100040002327000823270008232700082327000868
:100050002327000823270008232700082327000858
:100060002327000823270008232700082327000848
:100070002327000823270008232700082327000838
:100080002327000823270008232700082327000828
:100090002327000823270008232700082327000818
:1000A0002327000823270008232700082327000808
:1000B000232700088F25000823270008232700088E
:1000C00023270008232700082327000823270008E8
:1000D00023270008D5230008E14800086124000810
:1000E000232700082327000823270008DFF810D063
:1000F00006F03EF90048004719030008AFF30080FE
:10010000802000200020BE490870BE4800780B28DF
:1001100033D2DFE800F032060A0E12161B20242824
:100120002D000120B849086027E00020B64908608A
:1001300023E00020B54908601FE00120B3490860B2
:100140001BE00120B1491039086016E00020AF49DA
:100150001039086011E00020AD4908740DE001205D
:10016000AB49087409E00020A849091F086004E0B1
:100170000120A649091F086000BF00BF7047A448BE
:100180000078A349897A884203DB0120A04948739B
:1001900002E000209E4948739D4840799C49C97AF5
:1001A000884203DB01209A49887302E000209849C5
:1001B0008873974800799649097B884203DB0020C1
:1001C0009349C87302E001209149C873704710B584
:1001D0008F4B5B1C5A1ED11C481E01F0E9FF012009
:1001E00000F0C8FA8A490871062000F0E9FA884947
:1001F0004871864810380068C8718648D0F8A00158
:1002000088718548D0F8B00108728348D0F8AC01F5
:10021000487210BD10B504F06CFA03E04FF4FA70A8
:1002200002F051F805F042FB0028F7D17749086049
:100230007849C1F8A00179A17D4806F047F90C235F
:100240007B4A5021002000F08DFD642002F03BF835
:1002500001206E4908604FF4617002F034F800F03C
:1002600018FC10BD10B5002400F063F901F0EEFF9A
:1002700000F0EDFE00F00DFC4FF4E13002F05EF80E
:100280004FF4E13004F0DBFA4FF4165002F0F8F8C6
:1002900000F0C0FA0446042322460021082000F0A2
:1002A00061FD00F0C7F9044604232246102108200E
:1002B00000F058FD00F0ECF904460423224620210A
:1002C000082000F04FFD00F0D3FA04460423224634
:1002D0003021082000F046FD00F0F8FA044604231F
:1002E00022464021082000F03DFD01F098FF044621
:1002F000042322465021082000F034FD00F01AFBB0
:100300000446042322466021082000F02BFD40F221
:10031000DC5001F0D8FF10BD00241E25FFF7A2FF1E
:1003200000F0B7FBFFF776FF00F0B3FB66E0FFF7E6
:100330004EFF142D03DA3F480078012807D1002032
:100340003C49087005F0F7FB002504F017F9002080
:1003500004F084F9044614B1204605F030FCFFF7A0
:100360000EFF2848007828B901202549087063202D
:100370002449087022480078012811D121480078CA
:1003800063280DD01F480078072802D1002020499B
:1003900008741C480078082802D101201C49087400
:1003A0001B48007C10BB1A48407B012803D1174929
:1003B0001039086003E0002014491039086014481F
:1003C000C07B012802D11049086002E000200E49DC
:1003D00008600F48807B012804D100200B49091FC9
:1003E000086003E001200949091F08600848007CF3
:1003F000012801D1FFF786FE681C85B297E700004F
:100400001300002012000020A0812142B0012142EF
:100410000000002000802142000021424E6574202F
:10042000496E69742053756363657373A3A10000FB
:100430009414002011000020704700BFFEE700BFA9
:10044000FEE700BFFEE700BFFEE77047704770475A
:10045000704700000CB50020019000906C480068C7
:1004600040F480306A49086000BF6948006800F4C1
:10047000003000900198401C0190009818B9019834
:10048000B0F5A06FF1D16248006800F4003010B1FF
:100490000120009001E0002000900098012843D145
:1004A0005C48006840F010005A490860084600683F
:1004B00020F0030008600846006840F00200086071
:1004C00053484068524948600846406848600846BA
:1004D000406840F4806048600846406820F47C1022
:1004E00048600846406840F4E810486008460068E4
:1004F00040F08070086000BF4548006800F0007060
:100500000028F9D04248406820F003004049486084
:100510000846406840F00200486000BF3C48406820
:1005200000F00C000828F9D10CBD10B5FFF792FFC0
:1005300010BD10B53648006840F00100344908602D
:100540000846406834490840314948600846006818
:10055000324908402E4908600846006820F480208F
:1005600008600846406820F4FE0048604FF41F0011
:100570008860FFF7DAFF4FF000602949086010BD7E
:1005800010B5002100200022214B5B6803F00C0114
:1005900021B1042906D0082928D107E0214B224C9B
:1005A000236027E01F4B204C236023E0184B5B683F
:1005B00003F47010164B5B6803F48032022303EBE4
:1005C000904022B9194B4343174C23600DE0104B68
:1005D0005B6803F4003323B1144B4343124C236094
:1005E00003E0104B4343104C236003E00D4B0E4CD3
:1005F000236000BF00BF064B5B68C3F303130C4CC2
:10060000E15C094B1B68CB40074C236010BD000028
:1006100000100240002002400000FFF8FFFFF6FE3D
:1006200008ED00E000127A001800002000093D00EB
:100630001C00002008B50121082002F093FB4FF4B4
:100640004070ADF8000010208DF8030003208DF8F5
:1006500002006946074802F0C9F80120064908600F
:100660004FF4FA7001F02FFE00200449C1F8A001F8
:1006700003A008BD000C0140A0812142008021425E
:100680004C4544207375636365737321000000005B
:1006900000B587B001214FF4017002F063FB202008
:1006A000ADF8040000208DF8070003208DF8060047
:1006B00001A9524802F09AF84020ADF80400002049
:1006C0008DF8070003208DF8060001A94B4802F0C1
:1006D0008DF84B4802F01CFE002002908DF80C00B3
:1006E0008DF80D004FF4602004900020059001204B
:1006F0008DF8180002A9424802F031FE05230122BC
:1007000011463F4802F0C3FE0523012206213C4862
:1007100002F0BDFE01213A4802F04DFE384802F0D9
:100720006CFE00BF364802F06DFE0028FAD1344856
:1007300002F072FE00BF324802F073FE0028FAD1C8
:1007400030A007B000BD10B50446072301222146A2
:100750002B4802F09CFE0121294802F06CFE00BFEC
:100760000221274802F0D8FF0028F9D0244802F0DF
:10077000F5FE10BD2DE9F041074600240025A046F6
:10078000002608E03846FFF7DEFF0444052001F0AC
:100790009AFD701CC6B20A2EF4DB0A20B4FBF0F0FE
:1007A00085B2B5F57A6F01DD4FF47A65282095FBA7
:1007B000F0F0C0F1640000F0FF084046BDE8F081B1
:1007C0002DE9F041064600240027A04600250BE055
:1007D0003046FFF7B8FF0A2190FBF1F004440520F2
:1007E00001F071FD681CC5B20A2DF1DB0A20B4FBD3
:1007F000F0F707F0FF084046BDE8F081000801402F
:100800000024014041444320737563636573732181
:100810000000000008B50121042002F0A3FA4FF403
:100820000060ADF8000010208DF8030003208DF863
:1008300002006946074801F0D9FF00200649086018
:100840004FF4FA7001F03FFD01200449C1F8AC01FA
:1008500003A008BD00080140AC0121420000214274
:100860004245455020737563636573732100000032
:1008700008B50121042002F075FA4FF48050ADF85C
:10088000000010208DF8030003208DF80200694657
:10089000074801F0ABFF0020064908604FF4FA70EA
:1008A00001F011FD01200449C1F8B00103A008BD09
:1008B00000080140B00121420000214252454C4154
:1008C00059207375636365737321000008B50121B6
:1008D000042002F047FA4FF48070ADF800001020B9
:1008E0008DF8030001208DF8020069460A4801F0E6
:1008F0007DFF4FF48071084802F025F80120074978
:1009000008604FF4FA7001F0DEFC00200449C1F8E1
:10091000A00104A008BD000000080140A001214280
:100920000000214246414E20737563636573732155
:100930000000000008B50121082002F013FA04208D
:10094000ADF8000048208DF8030003208DF8020068
:1009500069460F4801F04AFF0820ADF80000482022
:100960008DF8030003208DF802006946084801F065
:100970003DFF1020ADF8000048208DF80300032053
:100980008DF802006946024801F030FF01A008BD61
:10099000000C01404B4559207375636365737321E7
:1009A0000000000070B504460E4626B10221F6484C
:1009B00001F0C9FF03E00221F34801F0C6FF102156
:1009C000F24801F0C2FF002517E02021EF4801F0B6
:1009D000BCFF04F0800020B18021EC4801F0B3FF9F
:1009E00003E08021E94801F0B0FF2021E74801F051
:1009F000AAFF6006040E681CC5B2082DE5DB1021B5
:100A0000E24801F0A0FF0221DF4801F09CFF70BD29
:100A100010B504461CB90021A620FFF7C3FF012C26
:100A200003D10021A720FFF7BDFF10BD10B504467C
:100A30003CB90021C820FFF7B5FF0021A120FFF736
:100A4000B1FF012C07D10021C020FFF7ABFF00212F
:100A5000A020FFF7A7FF10BD10B500218D20FFF7E4
:100A6000A1FF00211420FFF79DFF0021AF20FFF719
:100A700099FF10BD10B500218D20FFF793FF0021D5
:100A80001020FFF78FFF0021AF20FFF78BFF10BD75
:100A9000704710B5002001F088F910BD70B50A4606
:100AA000CE1701EB5676C6F3C703CE1701EB567689
:100AB000F610A1EBC606F4B20122A240D5B2B44AA8
:100AC00002EBC002D25C2A43B14E06EBC006F254E0
:100AD00070BD70B50B46CE1701EB5676C6F3C70254
:100AE000CE1701EB5676F610A1EBC606F4B2012341
:100AF000A340DDB2A64B03EBC0039B5CDB43A44EDB
:100B000006EBC006B354A24B03EBC0039B5C2B4324
:100B10009F4E06EBC006B3549D4B03EBC0039B5C9A
:100B2000DB439B4E06EBC006B35470BD2DE9F84F76
:100B300005460E4617469846002D0ADB802F08DC36
:100B4000002E06DBB8F1400F03DCBD4201DC464558
:100B500001DDBDE8F88FBD420DD1002406E030195B
:100B6000C1B22846FFF79AFF601CC4B2A8EB06008A
:100B7000A042F4DC30E046450CD1002406E02919FF
:100B8000C8B23146FFF78AFF601CC4B2781BA0428E
:100B9000F5DC21E0A8EB060000F0FF0A781B00F06E
:100BA000FF0B0AEB8A00400090FBFBF000F0FF090E
:100BB00000240EE004FB09F00A2190FBF1F0304420
:100BC000C0B229190090C8B20099FFF767FF601CF6
:100BD000C4B2781BA042EDDC00BFBAE72DE9F043B8
:100BE00006460F469046002544463BE03A1BD1B2EC
:100BF0007219D0B2FFF752FF3A1BD1B2721BD0B2BA
:100C0000FFF74CFF3A19D1B2721BD0B2FFF746FF83
:100C10003A19D1B27219D0B2FFF740FF7A19D1B2A6
:100C20003219D0B2FFF73AFF7A1BD1B23219D0B2E3
:100C3000FFF734FF7A1BD1B2321BD0B2FFF72EFF81
:100C40007A19D1B2321BD0B2FFF728FF6D1C05FB19
:100C500005F004FB040008FB1809B9F1000F01DDE1
:100C6000641E6D1E6000604308FB08F18842BDDA17
:100C7000BDE8F0832DE9FF4F81B080460E461C464B
:100C800000962046E31704EB5373DB1021464FEA2E
:100C9000E47C04EB5C7C4FEAEC0CA4EBCC0CBCF1E8
:100CA000000F02D04FF0010C01E04FF0000C634444
:100CB000224604EBD27C4FEA6C0C03FB0CF303F0EE
:100CC000FF0B03982038C7B2002547E00C2C07D152
:100CD00007EB47002F4901EB800010F805A014E056
:100CE000102C05D12C4800EB071010F805A00CE0E3
:100CF000182C07D107EBC700284901EB800010F83A
:100D000005A002E005B0BDE8F08F4FF000091FE03C
:100D10000AF0800020B131464046FFF7BFFE03E0F5
:100D200031464046FFF7D5FE4FEA4A604FEA106A67
:100D3000701CC6B20098301AA04205D1009E08F17E
:100D4000010000F0FF0806E009F1010000F0FF09D2
:100D5000B9F1080FDCDB00BF681CC5B25D45B5DB2F
:100D600000BFCFE7F8B505460E4614461F460023E0
:100D70004FF4FC6231462846009400F01AFC4FF410
:100D80007A7001F0A0FAF8BD000C014000080140A3
:100D9000B21400209C670008106C00080072000864
:100DA00010B50246012000E050430B1EA1F10104E2
:100DB000E1B2F9D110BD2DE9F04F06468A469146C1
:100DC0001F46099C00252CE0781B401EC1B20A205A
:100DD000FFF7E6FFB9FBF0F00A21B0FBF1F201FBEF
:100DE0001208B8F1000F0CD1A34604EBDB714910D7
:100DF00001FB0561C8B2234630225146FFF73AFF96
:100E00000DE0A34604EBDB71491001FB0561C8B29C
:100E100008F13001CAB223465146FFF72BFF681C88
:100E2000C5B2BD42D0DBBDE8F08F2DE9FF4F0746CC
:100E3000884691461C464FF0000B0297CDF804807F
:100E40002046E11704EB5171C1F3C701009160E046
:100E500009FB04F0C11700EB51710BEBE101CEB2BD
:100E60000BF1010000F0FF0B002550E0102C05D124
:100E70007A4800EB0610405D03901BE0182C07D168
:100E800006EBC600764901EBC000405D039011E01F
:100E9000202C05D1734800EBC610405D039009E09B
:100EA000402C05D1704800EB4620405D039001E0E6
:100EB000BDE8FF8F4FF0000A17E0039800F0010033
:100EC00020B141463846FFF7E9FD03E04146384688
:100ED000FFF7FFFD03984010039008F1010000F0B8
:100EE000FF080AF1010000F0FF0ABAF1080FE4DB85
:100EF000781CC7B20298381AA04204D1029F019808
:100F00000830C0B20190DDF80480681CC5B2A5426B
:100F1000ACDB0098411EC9B20091002898D100BFF7
:100F2000C6E7804689460026002749E03FB91023DE
:100F3000324618218020FFF778FF701CC6B2464564
:100F400022D14FF0000A1AE0002410E000250AE048
:100F5000464800EBC400415D601E444A02EBC000FD
:100F60004155681CC5B2082DF2DB601CC4B2902C40
:100F7000ECDBFFF78DFD0AF1010000F0FF0A4FEAFC
:100F800009105045E0DC0026781CC7B2102F00D1B4
:100F90000027002410E000250AE0344800EBC400DC
:100FA000415D601E314A02EBC0004155681CC5B26C
:100FB000082DF2DB601CC4B2902CECDBFFF768FD5F
:100FC000B4E770B504460D4605F1B001C8B2002182
:100FD000FFF7E8FC102141EA14100021FFF7E2FCC2
:100FE00004F00F000021FFF7DDFC70BD2DE9F05F7C
:100FF00005460E4617469846DDF828B04FF0000922
:10100000CA460024E11704EB5171C910A4EBC101D9
:1010100001B901E0601CC4B2344614E02146284600
:10102000FFF7CFFFAA460AE01BF809000121FFF7EE
:10103000B9FC09F101090AF1010000F0FF0ABA4503
:10104000F2DB601CC4B24445E8DBBDE8F09F10B59C
:1010500000F049FD00F0C6FE10BD00002C0000208D
:101060008C0100206402002064040020B2140020DF
:1010700030B5014601F01F04C1F34513CA0AE50269
:1010800005EB43151544A8B230BD2DE9F0470646DF
:101090000F4690469A46002445464FEA4800C0F164
:1010A00003094AE07A1991B2321990B2524600F01F
:1010B00060FE7A1991B2321B90B2524600F059FE8E
:1010C0007A1B91B2321990B2524600F052FE7A1B4E
:1010D00091B2321B90B2524600F04BFE3A1991B2D7
:1010E000721990B2524600F044FE3A1991B2721B46
:1010F00090B2524600F03DFE3A1B91B2721990B286
:10110000524600F036FE3A1B91B2721B90B2524624
:1011100000F02FFEB9F1000F05DA042000FB049067
:1011200000F1060907E0601B042101FB009000F1BB
:101130000A09681E85B2601C84B2AC42B2DBAC42C4
:1011400037D17A1991B2321990B2524600F011FE9D
:101150007A1991B2321990B2524600F00AFE7A1B07
:1011600091B2321990B2524600F003FE7A1B91B24E
:10117000321B90B2524600F0FCFD3A1991B272193E
:1011800090B2524600F0F5FD3A1991B2721B90B23E
:10119000524600F0EEFD3A1B91B2721990B25246DF
:1011A00000F0E7FD3A1B91B2721B90B2524600F07C
:1011B000E0FDBDE8F0872DE9FF4F83B0804689460A
:1011C0004946404600F0CBFD0598A0EB080506987F
:1011D000A0EB0906002D02DB0120029003E04FF096
:1011E000FF3002906D42002E02DB0120019003E0EF
:1011F0004FF0FF30019076424FEA450A4FEA460B26
:10120000B54219DDABEB0504002712E04946404624
:10121000109A00F0AEFD002C05DBA4EB0A04019847
:1012200048441FFA80F95C44029840441FFA80F851
:101230007F1CAF42EADD18E0AAEB0604002712E0AB
:1012400049464046109A00F094FD002C05DBA4EBC3
:101250000B04029840441FFA80F854440198484413
:101260001FFA80F97F1CB742EADD07B0BDE8F08FB6
:101270002DE9F84305460C4616461F46DDF820804A
:101280004EF67D700090A81982B22346214628466A
:10129000FFF791FF42F6651004F1010CBC441FFA00
:1012A0008CF305EB060CACF1010C1FFA8CF204F187
:1012B000010C1FFA8CF105EB060CACF1010C00904F
:1012C0001FFA8CF0FFF777FF42F665100090E019E7
:1012D00083B2A81982B2E01981B22846FFF76BFFEA
:1012E0004EF67D700090E01983B22A4621462846CA
:1012F000FFF761FF04F1010CBC44ACF1020C1FFAD2
:101300008CF305F1010CB444ACF1020C1FFA8CF221
:1013100004F1010C1FFA8CF105F1010C1FFA8CF09D
:10132000CDF80080FFF747FFBDE8F8832DE9F843CB
:1013300005460C4616461F46DDF82080B8F1000F22
:1013400039D14EF67D700090A81982B2234621460D
:101350002846FFF730FF42F6651004F1010CBC444B
:101360001FFA8CF305EB060CACF1010C1FFA8CF2A2
:1013700004F1010C1FFA8CF105EB060CACF1010C29
:1013800000901FFA8CF0FFF716FF42F665100090F0
:10139000E01983B2A81982B2E01981B22846FFF79A
:1013A0000AFF4EF67D700090E01983B22A4621466E
:1013B0002846FFF700FFB8F1010F39D142F665105A
:1013C0000090A81982B2234621462846FFF7F3FE73
:1013D0004EF67D7004F1010CBC441FFA8CF305EB52
:1013E000060CACF1010C1FFA8CF204F1010C1FFA8F
:1013F0008CF105EB060CACF1010C00901FFA8CF09F
:10140000FFF7D9FE4EF67D700090E01983B2A8195F
:1014100082B2E01981B22846FFF7CDFE42F6651090
:101420000090E01983B22A4621462846FFF7C3FE02
:10143000B8F1020F39D14FF6FF700090A81982B2AF
:10144000234621462846FFF7B6FE4FF6FF7004F10B
:10145000010CBC441FFA8CF305EB060CACF1010C3B
:101460001FFA8CF204F1010C1FFA8CF105EB060C4B
:10147000ACF1010C00901FFA8CF0FFF79CFE4FF6C8
:10148000FF700090E01983B2A81982B2E01981B20E
:101490002846FFF790FE4FF6FF700090E01983B2E8
:1014A0002A4621462846FFF786FEBDE8F883F8B5B0
:1014B00004460D4616461F4644F208202B46324687
:1014C000294600902046FFF776FE48F210406A1C3D
:1014D00093B291B2621C009090B23246FFF76BFE5D
:1014E00044F208203B462246294600902046FFF75A
:1014F00062FE48F21040631C9AB26B1C99B2631CE6
:10150000009098B23B46FFF756FE4FF6FF703B4601
:101510003246394600902046FFF74DFE4FF6FF70E9
:101520003B463246294600903046FFF744FEF8BD60
:10153000F8B506460F4614461D464FF6FF703B466B
:101540002246394600903046FFF735FE4FF6FF70D1
:101550002B463246394600903046FFF72CFE48F2C3
:1015600010406A1E93B291B2721C009090B2224653
:10157000FFF721FE44F208202B4622462946009020
:101580003046FFF718FE48F21040631E9AB27B1CEB
:1015900099B2631E009098B22B46FFF70CFE44F2FE
:1015A00008202B462246394600902046FFF703FECE
:1015B000F8BD2DE9F84F0746884693469A46DDF870
:1015C00028900097B3E099F8000080283DDA99F858
:1015D00000600D2E05D1009F08F110001FFA80F861
:1015E00030E0202E03DDA6F1200086B200E00026C8
:1015F000002422E000251CE004EB0610E849085C0A
:1016000080212941084040B108EB040291B27A19C7
:1016100090B25A4600F0ADFB09E0D34507D008EB85
:10162000040291B27A1990B2524600F0A2FB681CF3
:10163000C5B2082DE0DB601CC4B2102CDADB07F168
:10164000080087B209F1010971E0002668E006EBA5
:101650000610D44911F8100099F8001088425DD1A5
:1016600006EB0610CF4901EB4000407899F80110D5
:10167000884253D100244FE0002520E006EB0610FD
:10168000C84901EB4000801C10F81410802028414C
:10169000014041B108EB040291B27A1990B25A4666
:1016A00000F067FB09E0D34507D008EB040291B2D4
:1016B0007A1990B2524600F05CFB681CC5B2082D46
:1016C000DCDB002524E006EB0610B64901EB400008
:1016D000801C012101EB4401405C8021294108402C
:1016E00048B108EB040291B27A19083290B25A4616
:1016F00000F03FFB0AE0D34508D008EB040291B2AA
:101700007A19083290B2524600F033FB681CC5B219
:10171000082DD8DB601CC4B2102CADDB701C86B267
:10172000322E94DB09F1020907F1100087B299F813
:10173000000000287FF447AFBDE8F88F2DE9F05F87
:101740000646884693469A46DDF82890E2E099F8E6
:101750000000802835DA99F80070202F03DDA7F10A
:10176000200087B200E00027002522E000241CE0D2
:1017700005EB07108A49095C80202041014041B1F6
:1017800008EB050291B2321990B25A4600F0F1FA14
:1017900009E0D34507D008EB050291B2321990B2A7
:1017A000524600F0E6FA601CC4B2082CE0DB681C6C
:1017B000C5B2102DDADB09F1010906F1080086B285
:1017C000A8E000279EE007EB870000EB4710764972
:1017D00011F8100099F8001088427CD107EB8700BF
:1017E00000EB4710704901EB4000407899F8011078
:1017F0008842F2D1002580E0002423E007EB870037
:1018000000EB4710684901EB4000801C05EB4501E7
:10181000405C80212141084040B108EB050291B2B3
:10182000321990B25A4600F0A4FA09E0D34507D025
:1018300008EB050291B2321990B2524600F099FAC3
:10184000601CC4B2082CD9DB002426E007EB87001B
:1018500000EB4710544901EB4000801C05EB4501AB
:10186000491C405C80212141084048B108EB050239
:1018700091B23219083290B25A4600F07AFA0AE070
:10188000D34508D008EB050291B23219083290B264
:10189000524600F06EFA601CC4B2082CD6DB00245D
:1018A00027E007EB870000EB47103F4901EB4000C2
:1018B000801C05EB4501891C405C802121410840CA
:1018C00050B108EB050291B23219103290B25A466B
:1018D00000F04FFA0BE013E0D34508D008EB050207
:1018E00091B23219103290B2524600F042FA601CA6
:1018F000C4B2082CD5DB681CC5B2182DFFF67CAF2E
:10190000781C87B2142FFFF65EAF09F1020906F1C9
:10191000180086B299F8000000287FF418AFBDE8DF
:10192000F09F2DE9F05F07468846924699460025CC
:1019300031E000242BE01D490A9801EBC01000EBB8
:10194000850010F804B000261DE08020304100EA38
:101950000B0050B108EB050291B207EBC402324410
:1019600090B2524600F005FA0BE0CA4509D008EBE8
:10197000050291B207EBC402324490B24A4600F02D
:10198000F8F9701CC6B2082EDFDB601CC4B2042C50
:10199000D1DB681CC5B2202DCBDBBDE8F09F000079
:1019A0005C7F0008CE8C0008B69300084D850008C7
:1019B00008B501210C2001F0D5F94FF20200ADF875
:1019C000000003208DF8020010208DF80300694606
:1019D000FC4800F00BFF4FF48070ADF800000320CE
:1019E0008DF8020010208DF803006946F64800F0DB
:1019F000FDFE4FF48040F349103108608011F24938
:101A000010310860091D0860091F086008BD002129
:101A1000082118E000F080022AB14FF40042E94B9F
:101A200010331A6004E04FF40042E64B14331A609E
:101A30004FF40052E34B14331A601B1F1A60420626
:101A4000100E4A1ED1B20029E4DC704710B50446DE
:101A50004FF48050DB4914310860022008602046B2
:101A6000FFF7D5FF4FF48050D6491031086010BD04
:101A700010B504464FF48050D2491431086002205A
:101A8000091F08602046FFF7C2FF4FF48050CD4980
:101A90001031086010BD10B504464FF48050C9499C
:101AA000143108600220091F08602012FFF7AFFF01
:101AB000E0B2FFF7ACFF4FF48050C249103108602C
:101AC00010BD30B505460C462846FFF7BFFF20463F
:101AD000FFF7CEFF30BD10B5642000F0F4FB3220DC
:101AE00000F0F1FB10BD10B5FFF762FFFFF7F3FF49
:101AF0001120FFF7ABFF782000F0E5FBB120FFF7E6
:101B0000A5FF0120FFF7B4FF2C20FFF7B1FF2D2028
:101B1000FFF7AEFFB220FFF799FF0120FFF7A8FF04
:101B20002C20FFF7A5FF2D20FFF7A2FFB320FFF722
:101B30008DFF0120FFF79CFF2C20FFF799FF2D2040
:101B4000FFF796FF0120FFF793FF2C20FFF790FF90
:101B50002D20FFF78DFFB420FFF778FF0720FFF758
:101B600087FFC020FFF772FFA220FFF781FF02204E
:101B7000FFF77EFF8420FFF77BFFC120FFF766FFA2
:101B8000C520FFF775FFC220FFF760FF0A20FFF7AF
:101B90006FFF0020FFF76CFFC320FFF757FF8A207D
:101BA000FFF766FF2A20FFF763FFC420FFF74EFF11
:101BB0008A20FFF75DFFEE20FFF75AFFC520FFF7F1
:101BC00045FF0E20FFF754FF3620FFF73FFFC820E8
:101BD000FFF74EFFE020FFF739FF0F20FFF748FF28
:101BE0001A20FFF745FF0F20FFF742FF1820FFF7ED
:101BF0003FFF2F20FFF73CFF2820FFF739FF202071
:101C0000FFF736FF2220FFF733FF1F20FFF730FFDB
:101C10001B20FFF72DFF2320FFF72AFF3720FFF7B8
:101C200027FF0020FFF724FF0720FFF721FF0220F6
:101C3000FFF71EFF1020FFF71BFFE120FFF706FF55
:101C40000F20FFF715FF1B20FFF712FF0F20FFF7F4
:101C50000FFF1720FFF70CFF3320FFF709FF2C20A1
:101C6000FFF706FF2920FFF703FF2E20FFF700FFF5
:101C70003020FFF7FDFE3020FFF7FAFE3920FFF796
:101C8000F7FE3F20FFF7F4FE0020FFF7F1FE0720EC
:101C9000FFF7EEFE0320FFF7EBFE1020FFF7E8FE54
:101CA0002A20FFF7D3FE0020FFF7E2FE0020FFF717
:101CB000DFFE0020FFF7DCFE7F20FFF7D9FE2B20A0
:101CC000FFF7C4FE0020FFF7D3FE0020FFF7D0FE91
:101CD0000020FFF7CDFE9F20FFF7CAFEF020FFF7A0
:101CE000B5FE0120FFF7C4FEF620FFF7AFFE00208F
:101CF000FFF7BEFE3A20FFF7A9FE0520FFF7B8FE6A
:101D00002920FFF7A3FE10BDF0B504460D46164688
:101D10001F462A20FFF79AFE0020FFF7A9FEA11C0C
:101D2000C8B2FFF7A5FE0020FFF7A2FEB11CC8B2A3
:101D3000FFF79EFE2B20FFF789FE0020FFF798FE9D
:101D4000E91CC8B2FFF794FE0020FFF791FEF91CD2
:101D5000C8B2FFF78DFE2C20FFF778FEF0BD30B53E
:101D600004460D462B46224629462046FFF7CCFF67
:101D700030BD70B504460D461646681C83B2601C23
:101D800082B229462046FFF7BFFF3046FFF783FEA9
:101D900070BD60B505460E4631462846FFF7DFFFA9
:101DA000E0B2FFF765FE204660BD70B506467F23B2
:101DB0001A4600210846FFF7A7FF2C20FFF746FE32
:101DC00000240CE0000C014000080140002503E065
:101DD0003046FFF760FE6D1C802DF9D3641C802C0B
:101DE000F4D370BD10B50020FFF7DFFF10BD38B58C
:101DF00000244EF67D70FFF7D8FF82A04EF67D736B
:101E00004FF47842142100901020FFF7D2FB42F2E9
:101E1000107000F058FA38BD08B54EF67D70FFF727
:101E2000C4FF7BA04EF67D731F220A210090102074
:101E3000FFF7BFFB4FF47A7000F045FA4EF67D7065
:101E4000FFF7B3FF76A04EF67D73002208210090C5
:101E50000846FFF7AEFB76A04EF67D734FF4FC62AA
:101E60001C2100901020FFF7A4FB75A04EF67D7397
:101E70004FF47842302100901020FFF79AFB74A0B5
:101E80004EF67D731F22442100900020FFF791FB46
:101E900073A04EF67D734FF47842582100900020D5
:101EA000FFF787FB4FF4E16000F00DFA08BD38B58D
:101EB00001244EF67D70FFF778FF6DA04EF67D731E
:101EC0001F220A2100901420FFF773FB4FF4FA70D1
:101ED00000F0F9F925E04FF6FF70FFF766FF4FF4C9
:101EE000FA7000F0F0F90020FFF75FFF4FF4FA708E
:101EF00000F0E9F94FF47840FFF757FF4FF4FA701C
:101F000000F0E1F94FF4FC60FFF74FFF4FF4FA7077
:101F100000F0D9F91F20FFF748FF4FF4FA7000F0E6
:101F2000D2F9201EA4F10101CCB2D4D138BD2DE9E3
:101F3000F04707464FF6FF70FFF737FF002633E004
:101F400000252EE006EB860C4FEACC0C0CF1270C9A
:101F50001FFA8CF305EB850C4FEACC0C0CF1270C27
:101F60001FFA8CF206EB860C4FEACC4C4FEA1C4170
:101F700005EB850C4FEACC4C4FEA1C40FFF7C4FE42
:101F800000240AE017F8149007EB440090F8018051
:101F900049EA0820FFF77FFD641CB4F5C86FF1DB48
:101FA0006D1C032DCEDB761C032EC9DBBDE8F0874C
:101FB0002DE9F04105464FF6FF70FFF7F6FE7F234F
:101FC0001A4600210846FFF79FFE002409E015F895
:101FD000147005EB4400467847EA0620FFF75BFDE6
:101FE000641CB4F5804FF2DBBDE8F08110B5FFF75B
:101FF0007AFDFFF7F7FEFFF75AFFFFF7F8FEFFF74E
:102000000BFF10BD4E756D20546573740000000009
:10201000CEC4D7D6CFD4CABEB2E2CAD40000000024
:1020200053544D3332B5E7D7D3BCBCCAF5000000DA
:10203000D7A8D7A2D2BABEA7C5FAB7A2000000009F
:10204000C8ABB3CCBCBCCAF5D6A7B3D60000000061
:102050002054656C3A3132333435363738393000F4
:10206000206D63756465762E74616F62616F000028
:10207000436F6C6F722054657374000008B50121C2
:10208000052000F06FFE0121684800F080FC4FF44D
:102090000040ADF8000010208DF8030003208DF8FB
:1020A00002006946624800F0A1FB08BD08B50121A5
:1020B000052000F057FE01215C4800F068FC4FF459
:1020C0000040ADF8000004208DF803006946584830
:1020D00000F08CFB08BD10B5FFF7D0FF002055497C
:1020E0000860142000F0EFF801205349C1F8BC014A
:1020F0001E2000F0C4F810BD10B50024FFF7D6FF75
:1021000004E0601CC4B2012000F0B9F849488038EE
:10211000006808B1642CF4DB642C01DB012010BDE5
:10212000002404E0601CC4B2012000F0A8F841487B
:102130008038006808B9642CF4DB642C01DB0120D2
:10214000EDE70020EBE710B5002404E0601CC4B20A
:10215000012000F094F837488038006808B1642CFA
:10216000F4DB002404E0601CC4B2012000F087F816
:1021700030488038006808B9642CF4DB282000F06F
:102180007EF82C488038006808B1012010BD00207E
:10219000FCE770B50024002506E06006040EFFF79A
:1021A000D2FF0443681CC5B2082DF6DB204670BD83
:1021B0002DE9FC4105460E4617469846FFF78BFF72
:1021C000FFF79AFF30BB002405E0FFF7E2FF0DF8B0
:1021D0000400601CC4B2052CF7DB9DF800009DF8DC
:1021E000011008449DF8021008449DF803100844AB
:1021F0009DF80410884210D19DF8020038709DF8B7
:10220000030088F800009DF8000028709DF8010088
:10221000307002E00120BDE8FC810020FBE710B532
:10222000FFF759FFFFF768FF04A010BD0002300060
:1022300000080140BC0121420000214244485431C1
:1022400031207375636365737321000010B56FF0FF
:10225000040001F03EF82E4800682E49B0FBF1F072
:102260002D4908700846007800EB4001C1EBC01012
:102270004FF6FF7101EAC0002849088010BD0146F1
:10228000254A12784A434FF0E0235A6100229A61AE
:102290001A46126942F001021A6100BF4FF0E022B3
:1022A000106900F001021AB100F48032002AF5D062
:1022B0004FF0E022126922F001024FF0E0231A6190
:1022C00000229A6170470146144A12884A434FF02F
:1022D000E0235A6100229A611A46126942F0010213
:1022E0001A6100BF4FF0E022106900F001021AB13C
:1022F00000F48032002AF5D04FF0E022126922F07B
:1023000001024FF0E0231A6100229A617047000039
:102310001800002000127A006414002066140020C7
:1023200000BF704700BF4A4A128802F04002002AEC
:10233000F9D0C2B2464B1B1D1A80704710B586B04B
:102340000446012144F2040000F00CFD4FF400703B
:10235000ADF8140003208DF8160018208DF8170032
:1023600005A93C4800F042FA4FF48060ADF8140033
:1023700004208DF8170005A9364800F037FA25200B
:102380008DF8000000208DF8010001208DF802007A
:102390008DF80300684600F052FF01940020ADF86C
:1023A0000800ADF80A00ADF80C00ADF810000C20E4
:1023B000ADF80E0001A9264800F07BFD012240F295
:1023C0002551234800F00DFE0121214800F0FDFDBC
:1023D00006B010BD10B540F225511D4800F0E6FED4
:1023E00010B31B4800F062FEC4B21B48008800F422
:1023F0000040C8B91848008800F4804060B10A2C39
:1024000003D000201449088020E01348008840F4DD
:1024100000401149088019E00D2C06D10E480088B3
:1024200040F480400C49088010E00B480088C0F35D
:102430000D000A490C5408480088401C06490880D1
:1024400008460088C72801DD0020088010BD000074
:1024500000380140000801406C14002032190020AF
:1024600010B540F22551304800F0A0FE38B12E489A
:1024700000F01CFEC4B2A4F130002C49087010BD5D
:1024800010B586B004460121082000F06BFC012144
:10249000880400F074FC244800F0C8FC4FF480600D
:1024A000ADF8100003208DF8120018208DF81300ED
:1024B00004A91F4800F09AF94FF40060ADF810002D
:1024C00004208DF8130004A9194800F08FF9009436
:1024D0000020ADF80400ADF80600ADF80800ADF836
:1024E0000C000C20ADF80A0069460F4800F0E1FC32
:1024F00001210D4800F069FD012240F225510A48F2
:1025000000F06FFD27208DF8140000208DF81500D5
:1025100002208DF8160001208DF8170005A800F0A4
:102520008EFE06B010BD00000048004012000020E2
:10253000000C01407FB505460C460121022000F049
:102540001EFCADF80850ADF804400020ADF80A00BC
:10255000ADF8060001A94E4801F0D6F91D208DF80E
:10256000000000208DF8010003208DF802000120FA
:102570008DF80300684600F062FE012211464448CF
:1025800001F039FD0121424801F01AFD7FBD10B56F
:1025900001213F4801F0DDFF002873D001213C48B4
:1025A00001F0E8FFFEF775FA3A48027C3AA13C4890
:1025B00003F08CFF0C233A4A00210846FEF7D2FBB9
:1025C0003848027838A1364803F080FF0C23344A9B
:1025D00000213E20FEF7C6FB2E484378027835A145
:1025E0002F4803F073FF0C232D4A10210020FEF723
:1025F000B9FB2848C378827831A1294803F066FFE7
:102600000C23274A20210020FEF7ACFB2148027949
:102610002EA1234803F05AFF0C23214A3021002029
:10262000FEF7A0FB1B4842792BA11D4803F04EFF8B
:102630000C231B4A40210020FEF794FB1548827AA8
:1026400027A1174803F042FF0C23154A5021002010
:10265000FEF788FB0F48027B24A1114803F036FFE8
:102660000C230F4A60210020FEF77CFB0948C27A48
:1026700022A10B4803F02AFF0C23094A70210020F5
:10268000FEF770FB0121024801F074FF10BD00004D
:1026900000040040000000204D6F64653A2564008E
:1026A0009414002012000020566964656F3A256476
:1026B0000000000054656D703A25642E256400000A
:1026C00068756D693A25642E256400006C69676839
:1026D000743A2564000000006D713A256400000022
:1026E0006D61785F74656D703A2564006D696E5F29
:1026F0006C696768743A2564000000006D61785F5A
:102700006D713A256400000006488047064800477E
:10271000FEE7FEE7FEE7FEE7FEE7FEE7FEE7FEE791
:10272000FEE7FEE733050008ED00000810B504469B
:10273000CC48844208D10121042000F02DFB002167
:10274000042000F029FB46E0C748844208D101215B
:10275000082000F021FB0021082000F01DFB3AE0DA
:10276000C248844208D10121102000F015FB00214D
:10277000102000F011FB2EE0BD48844208D1012159
:10278000202000F009FB0021202000F005FB22E0C2
:10279000B848844208D10121402000F0FDFA002110
:1027A000402000F0F9FA16E0B348844208D1012134
:1027B000802000F0F1FA0021802000F0EDFA0AE01C
:1027C000AE48844207D10121801500F0E5FA0021CE
:1027D000A01500F0E1FA10BD10B50121084600F087
:1027E000DBFA0021012000F0D7FA10BD2DE9F041FD
:1027F000024600250026002000230024002791F82F
:1028000003C00CF00F0591F803C00CF0100CBCF1E4
:10281000000F03D091F802C04CEA050591F800C002
:10282000BCF1000F31D0146800202BE04FF0010CF8
:102830000CFA00F3B1F800C00CEA03069E4220D166
:1028400083004FF00F0C0CFA03F7BC4305FA03FCAE
:102850004CEA040491F803C0BCF1280F06D14FF0F4
:10286000010C0CFA00FCC2F814C00AE091F803C095
:10287000BCF1480F05D14FF0010C0CFA00FCC2F876
:1028800010C0401C0828D1D31460B1F800C0BCF1BE
:10289000FF0F34DD546800202EE000F1080C4FF0EB
:1028A000010808FA0CF3B1F800C00CEA03069E42D6
:1028B00021D183004FF00F0C0CFA03F7BC4305FA4B
:1028C00003FC4CEA040491F803C0BCF1280F05D1C5
:1028D00000F1080C08FA0CF8C2F8148091F803C053
:1028E000BCF1480F07D100F1080C4FF0010808FABD
:1028F0000CF8C2F81080401C0828CED35460BDE804
:10290000F0814FF6FF710180022181700421C170B6
:1029100070470246002093680B400BB1012000E095
:10292000002070470146886880B270470246002048
:10293000D3680B400BB1012000E000207047014636
:10294000C86880B2704701617047416170470AB141
:10295000016100E041617047C16070474FF480320F
:102960000A4382618161826182698269704702469D
:102970000020434B18684FF68073184040EA02105D
:1029800008433F4B186070473E49C8617047F0B537
:102990000A46002300240021002500F00046B6F17D
:1029A000004F02D1364EF16901E0354E7168C0F337
:1029B000034583B200F44016B6F5401F08D121F05C
:1029C00070612F4E766826F070662D4F7E6012E0A3
:1029D00000F48016B6F5801F06D1032606FA05F42A
:1029E000A14341F0706106E0460D360103FA06F698
:1029F000B14341F0706122B1460D360103FA06F68B
:102A0000314300F00046B6F1004F02D11C4EF16197
:102A100001E01B4E7160F0BD30B500228B071C0F2A
:102A20000F2303FA04F2164B08338C1053F82430AA
:102A30009343134C08348D1044F8253023468C10F2
:102A400053F824308C07240F00FA04F423430C4C71
:102A500008348D1044F8253030BD0A49DC31086057
:102A60007047000000080140000C014000100140C8
:102A70000014014000180140001C014000200140EA
:102A80000000014000002042DF48006840F00100E3
:102A9000DD49086008464068DC490840DA4948607A
:102AA00008460068DA490840D749086008460068C7
:102AB00020F4802008600846406820F4FE0048604A
:102AC0004FF41F0088607047CF49096821F48031B6
:102AD000CD4A11601146096821F480211160B0F5DA
:102AE000803F03D0B0F5802F0ED106E0C6490968BB
:102AF00041F48031C44A116007E0C349096841F4D8
:102B0000A021C14A116000E000BF00BF704710B5AE
:102B100001460022002300204A11012A02D1BA4CAA
:102B2000236806E0022A02D1B74C236A01E0B64CC2
:102B3000636A01F01F02012494401C400CB1012083
:102B400000E0002010BD38B50020009000240025D2
:102B500000BF3120FFF7DBFF05460098401C0090C6
:102B60000098B0F5A06F01D0002DF2D03120FFF712
:102B7000CEFF08B1012400E00024204638BD014604
:102B80000020A14A106820F0F80040EAC10010605F
:102B90007047A04908607047024600209A4B586869
:102BA00020F47C1042EA01031843974B58607047A9
:102BB00098490866704701460020934A506820F003
:102BC00003000843506070478F48406800F00C00D5
:102BD0007047014600208C4A506820F0F0000843FE
:102BE0005060704701460020874A506820F4E0603A
:102BF00008435060704701460020834A506820F423
:102C0000605040EAC1005060704729B17E4A527A54
:102C100002437D4B5A7204E07B4A527A82437A4BDC
:102C20005A7270477B49D8310860704701460020CE
:102C3000754A506820F440400843506070470021B6
:102C4000714A20321170704A82F82010012802D097
:102C500004280AD104E001216B4A2032117005E0FA
:102C60000521694A2032117000E000BF00BF7047A3
:102C70006949086070476449096A0143624A116200
:102C80007047654944390860704730B5002100221B
:102C9000002400235C4D6D6805F00C0121B104296E
:102CA00005D0082923D105E05C4D056022E05B4D8D
:102CB00005601FE0544D6D6805F47012524D6D684B
:102CC00005F48034022505EB92421CB9544D55435E
:102CD00005600BE04C4D6D6805F400351DB1504D9D
:102CE0005543056002E04D4D5543056002E04B4DF4
:102CF000056000BF00BF444D6D6805F0F001090993
:102D0000484D6B5C0568DD4045603F4D6D6805F4DE
:102D1000E061090A434D6B5C4568DD4085603A4DD2
:102D20006D6805F46051C90A3E4D6B5C4568DD4035
:102D3000C560354D6D6805F44041890B3A4D6B5CBB
:102D4000C568B5FBF3F5056130BD29B12E4A52695E
:102D500002432D4B5A6104E02B4A526982432A4BAD
:102D60005A61704729B1284A92690243264B9A61F9
:102D700004E0254A92698243234B9A61704729B146
:102D8000214AD2690243204BDA6104E01E4AD2692B
:102D900082431D4BDA61704729B11B4AD268024356
:102DA000194BDA6004E0184AD2688243164BDA60A5
:102DB000704729B1144A12690243134B1A6104E0A7
:102DC000114A12698243104B1A6170471249403907
:102DD000086070470F49C86470470B49C871704755
:102DE0000948406A40F080700749486270470146D0
:102DF0000020054A92680A400AB1012000E0002044
:102E00007047014988727047001002400000FFF8C7
:102E1000FFFFF6FE000042428004424200127A00A8
:102E200000093D006E1400207E14002010B50446F9
:102E3000FB48844209D101218803FFF7ADFF00213F
:102E40004FF48040FFF7A8FF32E0F648844209D1F2
:102E500001214804FFF7ADFF00214FF40030FFF7D8
:102E6000A8FF25E0F048844209D101218804FFF73A
:102E7000A0FF00214FF48020FFF79BFF18E0EB48F4
:102E8000844209D10121C804FFF793FF00214FF4C8
:102E90000020FFF78EFF0BE0E548844208D10121B6
:102EA0000805FFF786FF00214FF48010FFF781FF30
:102EB00010BD2DE9F04786B005460E460024A24617
:102EC00000BFA1460027B08900B100BF2F462C8A61
:102ED0004CF6FF700440F08804432C82AC894EF617
:102EE000F3100440B08831890843718908430443D2
:102EF000AC81AC8A4FF6FF400440B0890443AC82F9
:102F000001A8FFF7C2FEC648874202D1DDF810A033
:102F100001E0DDF80CA0A88900F4004040B10AEB04
:102F2000CA0000EB0A1031684900B0FBF1F807E075
:102F30000AEBCA0000EB0A1031688900B0FBF1F817
:102F40006420B8FBF0F004012009642101FB108922
:102F5000A88900F4004040B1322000EBC900B0FB6A
:102F6000F1F000F00700044308E0322000EB091004
:102F70006421B0FBF1F000F00F0004432C8106B097
:102F8000BDE8F0874FF41651016000218180C180B7
:102F900001810C21418100218181704710B50246D9
:102FA0000020108A4FF2FF0318400B884C882343FF
:102FB0008C882343CC8823431843108210BD002102
:102FC000018041808180C180704721B1828942F4B3
:102FD0000052828104E082894DF6FF731A4082819B
:102FE0007047F0B50346002400260025002040F677
:102FF0006A17B94200D100BF1846C1F3421401F06C
:103000001F06012707FA06F5012C01D10C3004E058
:10301000022C01D1103000E014301AB107682F43A0
:10302000076002E00768AF430760F0BD1AB1838A0A
:103030000B43838202E0838A8B4383827047028A38
:103040004FF6F0731A400282028A0A4302827047E6
:1030500082894FF2FF731A40828182890A438281FA
:10306000704721B1828942F00202828104E08289A4
:103070004FF6FD731A4082817047028A4FF6DF7364
:103080001A400282028A0A430282704721B1028AF0
:1030900042F48042028204E0028A4BF6FF731A4037
:1030A00002827047C1F30802828070470146888817
:1030B000C0F308007047818941F0010181817047A8
:1030C000028BD2B20283028B42EA01220283704752
:1030D000028B02F47F420283028B0A430283704711
:1030E00021B1828A42F02002828204E0828A4FF675
:1030F000DF731A408282704721B1828A42F0100247
:10310000828204E0828A4FF6EF731A40828270470F
:1031100021B1828A42F00802828204E0828A4FF65C
:10312000F7731A408282704721B1828942F40042CB
:10313000828103E08289C2F30E028281704721B14D
:10314000828A42F40062828204E0828A4FF2FF7334
:103150001A4082827047828A4FF6FB731A4082823D
:10316000828A0A438282704721B1828A42F0020237
:10317000828204E0828A4FF6FD731A408282704791
:1031800002460020B1F5007F00D100BF13880B403C
:103190000BB1012000E00020704701F40072B2F58D
:1031A000007F00D100BFCA430280704770B502465D
:1031B000002400230025002040F66A16B14200D109
:1031C00000BFC1F3421501F01F03012606FA03F305
:1031D000012D02D19689334006E0022D02D1168AD4
:1031E000334001E0968A33400C12012606FA04F4BB
:1031F0001688344013B10CB1012000E0002070BDEE
:1032000010B50022002340F66A14A14200D100BF8D
:103210000A1201249440A3B2DC43048010BD0000D4
:10322000003801400044004000480040004C00408D
:103230000050004031490143314A1160704770B578
:10324000002100230F22C47804B32D4C246804F419
:10325000E064C4F5E064210AC1F10403CA40447883
:1032600004FA03F18478144021430901254C0678BF
:10327000A155047804F01F050124AC4005786D11B8
:10328000AD0005F1E025C5F8004109E0047804F03F
:103290001F050124AC401C4D0678761145F82640E8
:1032A00070BD1A4A0A400243154B1B1F1A60704733
:1032B00039B1134A121D12680243114B1B1D1A60CB
:1032C00006E00F4A121D126882430D4B1B1D1A6047
:1032D0007047042808D14FF0E021096941F004014A
:1032E0004FF0E022116107E04FF0E021096921F081
:1032F00004014FF0E0221161704700000000FA0560
:103300000CED00E000E400E080E100E080FFFF1F42
:1033100010B50446FA48844208D101214015FFF750
:103320003BFD00216015FFF737FD17E0F5488442AB
:1033300008D101210015FFF72FFD00212015FFF70F
:103340002BFD0BE0F048844208D10121C803FFF7B0
:1033500023FD00214FF40040FFF71EFD10BD30B5E6
:103360000246002000235068E84C20400D790C688C
:1033700044EA0524204350609068E54C2040D1E9A0
:1033800002542C434D7944EA450420439060D06AAE
:1033900020F470000C7C641EE4B2234340EA035026
:1033A000D06230BD00210160017141718160C16056
:1033B00001210174704721B1826842F001028260EC
:1033C00003E0826822F001028260704721B18268C6
:1033D00042F48072826003E0826822F4807282602C
:1033E000704710B50023CBB21AB144681C43446047
:1033F00002E044689C43446010BD816841F00801CC
:1034000081607047014600208A6802F008020AB114
:10341000012000E000207047816841F004018160D4
:103420007047014600208A6802F004020AB10120B8
:1034300000E00020704721B1826842F4A00282605F
:1034400003E0826822F4A0028260704701460020F7
:103450008A6802F480020AB1012000E0002070476F
:1034600010B50A4600210023416821F46041531E33
:1034700041EA4331416010BD21B1426842F400622B
:10348000426003E0426822F4006242607047F0B597
:1034900004460D4600200021092D11DDE068A5F14C
:1034A0000A0606EB4607072606FA07F18843A5F148
:1034B0000A0606EB460603FA06F10843E0600CE054
:1034C000206905EB4507072606FA07F1884305EB57
:1034D000450603FA06F108432061072A0FDA606BFC
:1034E000561E06EB86071F2606FA07F18843561E6E
:1034F00006EB860605FA06F10843606322E00D2A12
:103500000FDA206BD61F06EB86071F2606FA07F197
:103510008843D61F06EB860605FA06F108432063AA
:1035200010E0E06AA2F10D0606EB86071F2606FAF8
:1035300007F18843A2F10D0606EB860605FA06F1AF
:103540000843E062F0BD21B1826842F480128260DB
:1035500003E0826822F48012826070470146C86CE2
:1035600080B2704766484C300068704721B14268AD
:1035700042F48062426003E0426822F4806242606A
:10358000704721B1426842F48052426003E04268D1
:1035900022F48052426070470A460021816821F47B
:1035A000E04111438160704721B1826842F40042DA
:1035B000826003E0826822F400428260704721B199
:1035C000826842F40212826003E0826822F40212EE
:1035D00082607047014600208A6802F400120AB136
:1035E000012000E000207047F0B504461546002099
:1035F00000220026092911DDE068A1F10A0707EB86
:10360000470C072707FA0CF29043A1F10A0707EBD2
:10361000470703FA07F21043E0600CE0206901EB72
:10362000410C072707FA0CF2904301EB410703FA1C
:1036300007F210432061A06BC0F30156EF1C06F1A6
:10364000010CA7EB0C0707EB870C1F2707FA0CF2FE
:103650009043EF1C06F1010CA7EB0C0707EB870763
:1036600001FA07F21043A063F0BD10B50A4600212D
:103670000023816B21F44011531E41EA0351816301
:1036800010BD08B5002300930090009B0B440093ED
:10369000009B1A6008BD08B5024600200090009209
:1036A00001F12800009B184400900098006880B247
:1036B00008BD0A4600214168164B1940114341607C
:1036C00070474162826270470A460021416821F0DA
:1036D0001F0111434160704740B109490831096831
:1036E00041F40001064A0832116007E0044908313C
:1036F000096821F40001024A083211607047000095
:103700000024014000280140003C0140FFFEF0FF82
:10371000FDF7F1FFFFFD3FFF0246002013680B405D
:103720000BB1012000E000207047CA4302607047DF
:1037300070B502460020002300240B125568CEB25B
:1037400005EA060415681D4015B10CB1012000E022
:10375000002070BD00220A12D343036070470000AE
:1037600010B50446FE48844208D10121C014FFF779
:1037700013FB0021E014FFF70FFBC4E0B4F1804F0E
:1037800008D101210846FFF714FB00210120FFF7B3
:1037900010FBB8E0F348844208D101210220FFF772
:1037A00008FB00210220FFF704FBACE0EE48844256
:1037B00008D101210420FFF7FCFA00210420FFF7C3
:1037C000F8FAA0E0E948844208D101210820FFF777
:1037D000F0FA00210820FFF7ECFA94E0E448844274
:1037E00008D101211020FFF7E4FA00211020FFF793
:1037F000E0FA88E0DF48844208D101212020FFF769
:10380000D8FA00212020FFF7D4FA7CE0DA4884427D
:1038100008D101214014FFF7BFFA00216014FFF71F
:10382000BBFA70E0D548844209D10121C804FFF7F2
:10383000B3FA00214FF40020FFF7AEFA63E0D0485E
:10384000844209D101210805FFF7A6FA00214FF4AF
:103850008010FFF7A1FA56E0CA48844209D101213D
:103860004805FFF799FA00214FF40010FFF794FA8A
:1038700049E0C548844208D101214020FFF799FA68
:1038800000214020FFF795FA3DE0C048844208D16E
:1038900001218020FFF78DFA00218020FFF789FAAF
:1038A00031E0BB48844208D101218015FFF781FA3D
:1038B0000021A015FFF77DFA25E0B648844209D122
:1038C00001210804FFF768FA00214FF48030FFF768
:1038D00063FA18E0B048844209D101214804FFF797
:1038E0005BFA00214FF40030FFF756FA0BE0AB48CB
:1038F000844208D101218804FFF74EFA00214FF4D9
:103900008020FFF749FA10BD00220288944B9842AC
:103910000ED0994B98420BD0B0F1804F08D0914B0C
:10392000984205D0904B984202D0904B984204D1D7
:103930004FF68F731A404B881A438D4B984207D02D
:103940008C4B984204D04FF6FF431A40CB881A4361
:1039500002808B8883850B880385814B98420BD02E
:10396000854B984208D08B4B984205D08A4B9842A1
:1039700002D08A4B984201D10B7A038601238382BD
:10398000704770B5002400220023058C4FF6FE76A8
:1039900035400584028C8388048B4FF68F752C404C
:1039A000B51E2C400D882C43751E2A400D892A43D4
:1039B0004D882A436A4DA8420BD06F4DA84208D0CB
:1039C000744DA84205D0744DA84202D0734DA84250
:1039D00013D14FF6F7752A404D892A434FF6FB75F0
:1039E0002A408D882A434FF6FF652B404FF6FF553E
:1039F0002B408D892B43CD892B4383800483CD8835
:103A00008586028470BD70B5002400220023058CD9
:103A10004FF6EF7635400584028C8388048B48F698
:103A2000FF752C404FF6FF452C400D884FF6FF7672
:103A300006EA05252C434FF6DF752A400D8906EA74
:103A400005152A434D8806EA05152A43444DA84228
:103A500002D0494DA8421DD14FF67F752A404D89AD
:103A60004FF6FF7606EA05152A434FF6BF752A4042
:103A70008D8806EA05152A434FF6FF352B404FF295
:103A8000FF752B408D8906EA85052B43CD8906EA13
:103A900085052B4383800483CD880587028470BD10
:103AA00070B5002400220023058C4FF6FF663540D8
:103AB0000584028C8388848B4FF68F752C404FF6DB
:103AC000FC752C400D882C434FF6FF552A400D897C
:103AD0004FF6FF7606EA05252A434D8806EA0525B6
:103AE0002A431F4DA84202D0234DA8421DD14FF2B8
:103AF000FF752A404D894FF6FF7606EA05252A43D1
:103B00004FF6FF352A408D8806EA05252A434EF6F2
:103B1000FF752B404DF6FF752B408D8906EA051584
:103B20002B43CD8906EA05152B4383808483CD88FA
:103B30008587028470BD70B5002200230024058CA7
:103B40004EF6FF7635400584038C8488828B48F6D8
:103B5000FF752A404FF6FF452A400D8820E00000FF
:103B6000002C01400004004000080040000C004010
:103B7000001000400014004000340140004C01409F
:103B8000005001400054014000180040001C00405B
:103B90000020004000400140004401400048014036
:103BA0004FF6FF7606EA05252A434DF6FF752B40B2
:103BB0000D8906EA05352B434D8806EA05352B436A
:103BC000FA4DA84202D0FA4DA84208D14BF6FF7533
:103BD0002C408D894FF6FF7606EA85152C438480AC
:103BE0008283CD88A0F84050038470BD828B4FF251
:103BF000FF331A408283828B4FF6FF7303EA01235F
:103C00001A4382837047F0B50C4615460022002106
:103C10000026078C4EF6FF7C07EA0C070784828B90
:103C2000018C4FF6FF7707EA043640F6FF473A402B
:103C30004FF6FF7707EA05273A434FF6FF7707EA83
:103C400003373A43D94FB8420ED0D94FB8420BD0C0
:103C5000B0F1804F08D0D74FB84205D0D64FB84208
:103C600002D0D64FB84206D14DF6FF77394046F420
:103C70008057394305E047F6FF57394044F48057F1
:103C8000394382830184F0BD828B4FF6F3731A406F
:103C90008283828B0A4382837047F0B50C461546B7
:103CA000002200210026078C4FF6FF6C07EA0C0764
:103CB0000784828B018C4FF6FF7707EA04264FF6C4
:103CC0000C773A404FF6FF7707EA03172F433A4342
:103CD000B64FB8420ED0B64FB8420BD0B0F1804FBD
:103CE00008D0B44FB84205D0B34FB84202D0B34F5A
:103CF000B84206D14FF6FF57394046F48077394332
:103D000005E04FF2FF57394044F48077394382830E
:103D10000184F0BD028B4FF2FF331A400283028B05
:103D20004FF6FF7303EA01231A4302837047F0B58D
:103D30000C461546002200210026078C4FF6EF7C2A
:103D400007EA0C070784028B018C4FF6FF7707EA1E
:103D5000041640F6FF473A404FF6FF7707EA03376D
:103D60003A434FF6FF7707EA05273A438F4FB842A9
:103D70000ED08F4FB8420BD0B0F1804F08D08D4F8E
:103D8000B84205D08C4FB84202D08C4FB84206D111
:103D90004FF6DF77394046F01007394305E04FF61C
:103DA0005F77394044F01007394302830184F0BD46
:103DB000028B4FF6F3731A400283028B0A4302838D
:103DC0007047F0B50C46154600220021068C4FF6D0
:103DD000FE773E400684028B018C4FF60C76324013
:103DE0007E1C06EA03162E433243704EB0420ED0BC
:103DF0006F4EB0420BD0B0F1804F08D06D4EB04244
:103E000005D06D4EB04202D06C4EB04206D14FF696
:103E1000FD76314044F00106314305E04FF6F5767A
:103E2000314044F00106314302830184F0BD70B596
:103E300005460C465D4885420ED05D4885420BD054
:103E4000B5F1804F08D05B48854205D05A4885427D
:103E500002D05A48854200D100E000BF208850B906
:103E60002389A28861882846FFF7ABFFE1882846AE
:103E7000FFF79EFF25E0208804280AD12389A28825
:103E800061882846FFF753FFE1882846FFF742FF85
:103E900017E0208808280AD12389A288618828464B
:103EA000FFF7FBFEE1882846FFF7EEFE09E02389D5
:103EB000A28861882846FFF7A6FEE1882846FFF71A
:103EC00095FE70BD2DE9F04105460C460026012700
:103ED000608808B9022600E00026A088012801D1E8
:103EE000022700E001272088A0B92389A2886188E1
:103EF0002846FFF766FFE1882846FFF759FF238928
:103F00003A4631462846FFF712FFE1882846FFF778
:103F100001FF13E02389A28861882846FFF707FF85
:103F2000E1882846FFF7F6FE23893A4631462846BF
:103F3000FFF747FFE1882846FFF73AFFBDE8F08129
:103F40000A884B881A438B881A43CB881A430B89FB
:103F50001A434B891A438B891A43A0F844207047AF
:103F60004FF6FF71818000210180C1804180017284
:103F700070470021018041808180C18001814181A1
:103F80008181C181704700210180418001218180B0
:103F90000021C18001817047002101804180818022
:103FA000C18001814181818170470000002C014066
:103FB000003401400004004000080040000C0040B4
:103FC00021B1028842F00102028004E002884FF62B
:103FD000FE731A400280704731B1B0F8442042F4B9
:103FE0000042A0F8442005E0B0F84420C2F30E02DD
:103FF000A0F8442070471AB183890B43838102E003
:1040000083898B43838170478182704741EA020331
:10401000A0F8483070471AB183890B43838102E0CE
:1040200083898B438381704701894FF6F872114071
:10403000018170470A46002101894FF68F731940AC
:1040400011430181704730B504460D46294620468C
:10405000FFF7F0FF208940F00700208130BD2DE9F7
:10406000F04104460D4616461F46602D06D13B46DC
:10407000012231462046FFF75AFE05E03B46012269
:1040800031462046FFF79DFE29462046FFF7D2FF26
:10409000208940F007002081BDE8F08130B50C4652
:1040A00000210189C9B24FF6FF7505EA03251543C2
:1040B00025432943018130BD2DE9F04105460E46D7
:1040C00017469846002443463A4631462846FFF7AD
:1040D000E5FF2C894FF6F870044044F007044FF6D2
:1040E0008F70044044F070042C81BDE8F081F0B57D
:1040F00004460D4616461F463B4632462946204694
:10410000FFF7CCFF208940F480402081F0BD01857D
:10411000828270470A46002101884FF68F7319404A
:10412000114301807047F0B50C4615461E4600212C
:10413000002200230189028B038C4FF6F877394067
:1041400021434FF6FC473A4040F201173A434FF6FD
:10415000DD773B404FF6FF7707EA06172F433B43D7
:10416000018102830384F0BD0A460021018B4FF6D2
:104170008F7319401143018370470A460021018B58
:1041800048F6FF7319404FF6FF7303EA0223194301
:10419000018370470A460021818B4FF68F731940C7
:1041A0001143818370470A460021818B48F6FF73D3
:1041B00019404FF6FF7303EA0223194381837047C6
:1041C00021B1028842F08002028004E002884FF6AA
:1041D0007F731A400280704721B1828842F0040246
:1041E000828004E082884FF6FB731A408280704719
:1041F00021B1828842F00802828004E082884FF672
:10420000F7731A408280704721B1828842F0010220
:10421000828004E082884FF6FE731A4082807047E5
:104220000A460021018B4FF6F773194011430183B1
:1042300070470A460021018B4FF2FF7319404FF679
:10424000FF7303EA02231943018370470A460021E2
:10425000818B4FF6F77319401143818370470A46EB
:104260000021818B4FF2FF7319404FF6FF7303EA71
:1042700002231943818370470A460021018B4FF6C0
:10428000FB7319401143018370470A460021018BDB
:104290004FF6FF3319404FF6FF7303EA0223194329
:1042A000018370470A460021818B4FF6FB7319404A
:1042B0001143818370470A460021818B4FF6FF33FB
:1042C00019404FF6FF7303EA0223194381837047B5
:1042D0000A460021018B4FF67F7319401143018379
:1042E00070470A460021018BC1F30E014FF6FF73A0
:1042F00003EA02231943018370470A460021818B98
:104300004FF67F7319401143818370470A4600219D
:10431000818BC1F30E014FF6FF7303EA02231943A9
:10432000818370470A460021018C4FF6FD731940C6
:104330001143018470470A460021018C4FF6F77340
:1043400019401143018470470A460021018C4FF641
:10435000DF7319404FF6FF7303EA02131943018418
:1043600070470A460021018C4FF67F7319404FF6C3
:10437000FF7303EA02131943018470470A460021C0
:10438000018C4FF6FF5319404FF6FF7303EA0223E7
:104390001943018470470A460021018C4FF2FF73D4
:1043A00019404FF6FF7303EA022319430184704753
:1043B0000A460021018C4DF6FF7319404FF6FF733A
:1043C00003EA023319430184704730B50023012406
:1043D0008C40A3B2048C9C430484048C02FA01F543
:1043E000ADB22C43048430BD30B5002304248C408E
:1043F000A3B2048C9C430484048C02FA01F5ADB290
:104400002C43048430BD70B50346002000241846B8
:10441000183001258D40ACB21D8CA5431D8409B117
:10442000082909D100EB6100056825F070050560D9
:104430000568154305600EE00D1FC5F34E052844C1
:10444000056825F4E045056005684FF6FF7606EA45
:1044500002263543056070BD21B1028842F0020298
:10446000028004E002884FF6FD731A400280704714
:1044700021B1028842F00402028004E002884FF673
:10448000FB731A400280704721B1828842F080029B
:10449000828004E082884FF67F731A4082807047E2
:1044A00002884FF6F7731A40028002880A4302809E
:1044B000704782884FF68F731A40828082880A4341
:1044C0008280704702894FF6F8731A400281028990
:1044D0000A430281704702894FF67F731A400281B6
:1044E00002890A4302817047818470478185704741
:1044F000818670470187704781877047A0F8401018
:10450000704702884FF6FF431A40028002880A4330
:10451000028070470146888E70470146088F7047B9
:104520000146888F70470146B1F840007047014648
:10453000888C70470146088D704702460020138A18
:104540000B400BB1012000E000207047CA430282FB
:10455000704730B50246002000230024158A05EA82
:104560000103958905EA010413B10CB1012000E0B3
:10457000002030BDCA4302827047000010B5802180
:10458000E74801F042FE0020E649088010BDE548FA
:10459000008808B901207047E2480088E24909888C
:1045A000884203D10020DF490880F4E7DD48008815
:1045B000DD4908800120EEE770B504460D4600266F
:1045C0000DE014F8011BD948FEF76CFD00BF402137
:1045D000D648FEF7D5FD0028F9D0701C86B2AE4251
:1045E000EFDB70BD2DE9F04105460E461446284626
:1045F00001F03EFE87B239462846FFF7DDFF0FE0A7
:10460000FFF7C5FF48B93146C54801F015FE20B196
:10461000FFF7B4FF0020BDE8F0810A20FDF753FE4C
:10462000201EA4F101018CB2EAD10120F3E730B5DC
:1046300089B005460C46FFF7A1FF2246BCA101A8A0
:1046400001F044FFC822BEA101A8FFF7CBFF18B9B3
:1046500021462846FFF7B0FF09B030BD70B50546CA
:10466000002400BFFFF793FFA0B9B6A1AC4801F04A
:10467000E3FD04461CB9B5A001F018FF0AE03A2199
:10468000204601F0EBFD044614B1641C204670BDC9
:104690000020FCE70520FDF716FE281EA5F101010C
:1046A0008DB2DFD100BFF2E710B5AD480078B0B9E8
:1046B0000A20FDF708FEAA48007880B900BF4FF431
:1046C0004872A8A1AAA0FFF78DFF0028F7D100BF6C
:1046D000C822ACA1ACA0FFF785FF0028F8D100BF2D
:1046E0004FF4C8729FA1ADA0FFF77CFF0028F7D15F
:1046F00010BD08B501210420FEF734FB10208DF811
:1047000003000120ADF8000003208DF80200694687
:10471000A548FEF76BF800220121A348FEF717F920
:10472000FA20FDF7D0FD012211469F48FEF70FF950
:104730004FF4FA70FDF7C7FDFFF720FF9BA001F0D3
:10474000B5FE03E04FF4FA70FDF7BDFDC8228DA160
:1047500098A0FFF747FF0028F4D198A19C4801F0EA
:10476000B5FE0C239A4A00210846FCF7FBFA99A0F3
:1047700001F09CFE03E04FF4FA70FDF7A4FDC8229F
:1047800080A197A0FFF72EFF0028F4D198A19048B0
:1047900001F09CFE0C238E4A10210020FCF7E2FA67
:1047A00096A001F083FE03E04FF4FA70FDF78BFD55
:1047B000C82274A194A0FFF715FF0028F4D196A198
:1047C000834801F083FE0C23814A20210020FCF75E
:1047D000C9FA94A001F06AFE03E04FF4FA70FDF705
:1047E00072FDC82291A193A0FFF7FCFE0028F4D12E
:1047F00098A1774801F06AFE0C23754A3021002009
:10480000FCF7B0FA97A001F051FE03E04FF4FA7004
:10481000FDF759FDC82296A197A0FFF7E3FE0028F7
:10482000F4D1A0A16A4801F051FE0C23684A40214E
:104830000020FCF797FA9FA001F038FE08BD10B5E4
:1048400086B0044601210420FEF78CFA01214804B9
:10485000FEF795FA18208DF817000420ADF8140023
:1048600003208DF8160005A94F48FDF7BFFF04206F
:104870008DF817000820ADF8140003208DF81600FD
:1048800005A94948FDF7B2FF01940020ADF81000DA
:104890000C20ADF80E000020ADF80C00ADF80A00B9
:1048A000ADF8080001A92148FEF703FB01211F48CC
:1048B000FEF78BFB012240F225511C48FEF791FBCD
:1048C00026208DF8000001208DF8030000208DF8CF
:1048D00001008DF802006846FEF7B1FC06B010BD7D
:1048E00010B540F225511148FEF760FCB0B10D48FB
:1048F0000088802802D300200A4908800B48001D48
:104900000088C1B2074802880088401C054B188007
:104910000348815420210548FEF73FFC10BD0000EC
:10492000FA19002082140020841400200044004062
:1049300041542B43495053454E443D25640D0A00D4
:104940003E0000004950442C000000002249504421
:1049500022206E6F7420666F756E640D0A00000071
:10496000140000205749464920474F542049500021
:1049700041542B43575354415254534D4152540DBB
:104980000A0000004F4B000041542B435753544F33
:1049900050534D4152540D0A0000000041542B5217
:1049A00053540D0A000000000008014041540D0A54
:1049B0000000000041540D0A0D0000004154204940
:1049C0006E69742073756363657373210000000062
:1049D0009414002043574D4F44450D0A0000000039
:1049E00041542B43574D4F44453D310D0A000000C3
:1049F00041542B43574D4F44453D310041542B43C7
:104A000057444843500D0A0041542B4357444843F0
:104A1000503D312C310D0A0041542B43574448433B
:104A2000503D310043574A41500D0A00474F542032
:104A30004950000041542B43574A41503D226F6E6C
:104A400065222C2231323334353637383930220D55
:104A50000A000000474F5420495020737563636576
:104A60007373210043495053544152540D0A0000BE
:104A7000434F4E4E4543540041542B4349505354E9
:104A80004152543D22544350222C223138332E328D
:104A900033302E34302E3339222C363030320D0A5A
:104AA00000000000434F4E4E454354204F4E454EAC
:104AB000455400004553503832363620496E6974EB
:104AC000204F4B0D0A00000070B504460E4600252D
:104AD000206898B901202073304601F029FE20603B
:104AE0002068E0B100206060A66003E0002021683B
:104AF00048556D1CA068A842F8D810E00220207329
:104B000003E00020216848556D1CA068A842F8D831
:104B100000206060A068B04201D20020206070BD1B
:104B200010B50446207B012802D1206801F0D8FD91
:104B3000002020606060A060207310BD024600234A
:104B400001230DE002F07F000870D2092AB1087835
:104B500040F080000870491C01E0184670475B1C5B
:104B6000042BEFDD4FF0FF30F8E7F0B504460D46BB
:104B70002646012300201060002114E0775C07F036
:104B80007F07106807FB03001060705C00F0800076
:104B900008B9481CF0BDDB01B3F5001F02D36FF06C
:104BA0000100F7E7491CA942E8DB4FF0FF30F1E7CD
:104BB000F8B50446FF2720780511012D01DB0E2DE5
:104BC00001DD3846F8BD032D24D1002000906A464F
:104BD0000421601CFFF7C9FF2044461C00980228EE
:104BE00003D3207800F0010008B1FF20EAE77078D5
:104BF000317840EA0120801C0099884201D9FF20C9
:104C0000E0E7F8A1B01C01F017FB08B10F2700E0A6
:104C1000032700E02F463846D4E72DE9FF4F83B045
:104C200082468B469146159C0025002002900F2756
:104C30000190484601F01CFB0FFA80F8B9F1000F13
:104C400003D1012007B0BDE8F08F08F1020038441D
:104C500087B2109808B145F00205129878B145F076
:104C60000405129801F004FBC0B20290139801F001
:104C7000FFFA01460298001D0844384487B2119893
:104C800020B1012804D0022808D104E000BF07E0C9
:104C900045F00C0504E045F0140501E00220D1E7E1
:104CA00000BF149808B145F02405BAF1000F02D0F6
:104CB000BBF1000F01D10320C4E745F0C005504609
:104CC00001F0D6FA0646584601F0D2FA3044001DEB
:104CD000384487B239462046FFF7F6FE206808B907
:104CE0000420AFE73946206801F08FFA102162688E
:104CF000501C606020688154D4E90023D118781FCB
:104D0000FFF71CFF00B201900198002804DA20464A
:104D1000FFF706FF052095E7616801980844606089
:104D200000216268501C6060206881540421626820
:104D3000501C6060206881544D216268501C606086
:104D40002068815451216268501C60602068815441
:104D500054216268501C6060206881546268501C55
:104D600060602068815404216268501C6060206883
:104D700081546168481C6060206845540698010AA7
:104D80006268501C6060206881540698C1B26268F5
:104D9000501C606020688154C8F307216268501C71
:104DA0006060206881546268501C6060206800F870
:104DB0000280D4E9001288184246494601F05FFAA1
:104DC00060684044606005F00400B8B300261398A2
:104DD00008B986A01390129801F04AFA86B2310AF7
:104DE0006268501C6060206881546268501C60607A
:104DF00020688654D4E9001288183246129901F0CE
:104E00003EFA606830446060139801F031FA86B26F
:104E1000310A6268501C6060206881546268501CCE
:104E2000606020688654D4E90012881832461399CD
:104E300001F025FA60683044606000BF05F0800032
:104E4000C8B1504601F014FA86B2310A6268501CAB
:104E50006060206881546268501C606020688654DD
:104E6000D4E9001288183246514601F008FA606809
:104E70003044606000BF05F04000C8B1584601F002
:104E8000F7F986B2310A6268501C6060206881546C
:104E90006268501C606020688654D4E9001288184B
:104EA0003246594601F0EBF960683044606000BF5B
:104EB0000020C7E610B5044602212046FFF704FE95
:104EC000206808B9012010BDE0216268501C6060B4
:104ED0002068815400216268501C60602068815401
:104EE0000020F0E701464878022801D001207047F1
:104EF000887810B18878012801D1C878F7E7FF20B9
:104F0000F5E72DE9FF4F83B0834690469946139C01
:104F1000002600250020029001900027BBF1000F21
:104F200003D1012007B0BDE8F08F00250AE0049806
:104F3000405D232803D00498405D2B2801D1022036
:104F4000F0E76D1C0498405D0028F0D147F0300771
:104F5000119808B147F0010705EB0900861C10986D
:104F600020B1012804D002280AD105E000BF09E0E1
:104F700047F00207B61C05E047F00407B61C01E045
:104F80000320CFE700BF98F80000022822D14FF09D
:104F9000000A00BF50460AF1010A18F800007D28F7
:104FA000F8D1AAF1030A0AF1070002900298A9EBCE
:104FB000000AF01CA0EB0A012046FFF785FD2068DF
:104FC00008B90420AEE7F21CA2EB0A01206801F048
:104FD0001CF911E0F11C2046FFF776FD206838B976
:104FE00004209FE724637265710000000000000048
:104FF000F11C206801F009F96168481C60602068B4
:105000004754D4E9000281183046FFF797FD01901C
:105010000198002804DA2046FFF782FD052081E789
:105020006168019808446060C5F307216268501CFC
:105030006060206881546268501C606020688554FC
:10504000D4E9001288182A46049901F018F960681A
:1050500028446060109860B14FEA1B216268501CC0
:105060006060206881546268501C6060206800F8AD
:1050700002B0B8F1000F19D098F8000002280BD147
:10508000D4E9001288184146029A01F0A5F8616837
:1050900002980844606009E0D4E9001288184A4682
:1050A000414601F099F8606848446060002039E7A3
:1050B0002DE9FF4107460D4690461E460A9C0120F9
:1050C0000021CDE90001EB1C0A46FAA1CDE902045A
:1050D0000A20FFF716FF88B96168481C60602068E5
:1050E0004654C5F307216268501C606020688154F3
:1050F0006268501C60602068855403E0012004B0A1
:10510000BDE8F0810020FAE72DE9F04F85B0804638
:105110000D469146012004900027002600244FF000
:10512000000A404601F0A4F800F10D0B584601F0CA
:10513000FFFA07461FB9049805B0BDE8F08F424654
:10514000DDA1384601F0C2F9384601F091F8C6B247
:10515000F01D00EB050AAAEB050001F0E9FA044690
:1051600024B9384601F0BCFA0498E5E70220207023
:1051700000206070A67032463946E01C01F02CF821
:10518000290EF01C2154C5F30741301D2154C5F3ED
:105190000721701D2154B01D255401200021CDE9A7
:1051A000000153462246C3A1CDE902090A20FFF7B8
:1051B000A8FE08B900200490384601F091FA204674
:1051C00001F08EFA0498B7E72DE9F84380460C46C3
:1051D00015461E462F2108F1060001F03FF807464C
:1051E0000020009017B90120BDE8F8837F1C6A46B3
:1051F000042108F10100FFF7B8FC252001F098FA1E
:105200002060206808B90220EEE72521206800F020
:10521000FCFF24223946206800F0DEFF2437009886
:105220002C3830803188481C01F082FA28602868C8
:1052300020B9206801F054FA0320D5E73288511CC8
:10524000286800F0E2FF32883946286800F0C4FF81
:105250000020C9E72DE9FF5F07460D469046384616
:1052600001F006F886B2284601F002F81FFA80FA2B
:105270004FF00009B01D01F05BFA04461CB9012093
:1052800004B0BDE8F09FB11D204600F0BEFF8EA027
:10529000016821608088A08032463946204600F0AF
:1052A000EEFF284600F0E4FF834601200021009134
:1052B0005B462A46CDE90208019121460A20FFF704
:1052C00020FE10B94FF0000901E04FF0010920461F
:1052D00001F006FA4846D3E72DE9FF5F80461746FE
:1052E00099460E9C0026B246B3460025B8F1000F41
:1052F00003D1012004B0BDE8F09F0BE057F8250072
:1053000008B90220F6E757F8250000F0B1FF06447F
:10531000681CC5B24D45F1DB09EB4900801C00EB70
:10532000060A0AF105012046FFF7CEFB206808B9FE
:105330000320DFE782216268501C6060206881548E
:10534000D4E9000281185046FFF7F8FB0FFA80FB02
:10535000BBF1000F04DA2046FFF7E2FB0420C9E7A7
:105360006068584460604FEA18216268501C6060B1
:10537000206881546268501C6060206800F80280D8
:10538000002524E057F8250000F072FF0646C6F31A
:1053900007216268501C6060206881546268501C5C
:1053A000606020688654D4E90023D01857F825108F
:1053B000324600F064FF6068304460600198C1B21A
:1053C0006268501C606020688154681CC5B24D45FD
:1053D000D8DB00208EE70146FF208A78A2B9CA7880
:1053E000142A11D10A7932B1012A05D0022A04D037
:1053F000802A06D103E000BF00BF002003E00120A7
:1054000001E0022000BF00BF70472DE9F05F804639
:105410000F4691461C460026B246B3460025B8F119
:10542000000F02D10120BDE8F09F0BE057F82500E6
:1054300008B90220F7E757F8250000F019FF0644E5
:10544000681CC5B24D45F1DB022000EB490000EBC2
:10545000060A0AF105012046FFF736FB206808B965
:105460000320E0E7A2216268501C6060206881543C
:10547000D4E9000281185046FFF760FB0FFA80FB69
:10548000BBF1000F04DA2046FFF74AFB0420CAE70D
:105490006068584460604FEA18216268501C606080
:1054A000206881546268501C6060206800F80280A7
:1054B00000252BE0246470007B2264735F69642202
:1054C0003A222573227D000024637273702F00003E
:1054D00057F8250000F0CCFE0646C6F307216268A7
:1054E000501C6060206881546268501C60602068B5
:1054F0008654D4E90023D01857F82510324600F01E
:10550000BEFE606830446060681CC5B24D45DFDB9C
:10551000002088E7014601208A781AB9CA781E2A35
:1055200000D1002070472DE9FC5F81460D461446EE
:105530001E46DDE90C8B99F8000000F00F0A0020F0
:1055400001900AF008000090CAF341008BF80000B7
:1055500001AA042109F10100FFF707FB4844471C99
:105560000198022802D30AF0010010B1FF20BDE823
:10557000FC9F7878397840EA012020802088801CC0
:105580000199884201D9FF20F1E7AFF2A851B81C78
:1055900000F052FE08B10F20E9E79BF8000020B1AF
:1055A00001283DD0022877D13BE0009808B1FF20C8
:1055B000DDE72188481C01F0BBF82860286808B99D
:1055C000FF20D4E72288511C286800F01EFE2288A4
:1055D000B91C286800F000FE0198801E2188401A3E
:1055E000A8F80000B8F80010481C01F0A1F83060DD
:1055F000306820B9286801F073F8FF20B7E7B8F8E1
:105600000020511C306800F000FEB8F80020B4F80B
:1056100000C0BB1C0CEB0301306800F0DDFD4FE067
:1056200000BF2088801C0199884201D9FF209EE795
:105630002088C01C395C2088801C385C41EA00212D
:105640000E9801800E9808B9FF2090E72188481C29
:1056500001F06EF82860286808B9FF2087E72288E3
:10566000511C286800F0D1FD2288B91C286800F080
:10567000B3FD0198001F2188401AA8F80000B8F86F
:105680000010481C01F054F83060306828B92868D0
:1056900001F026F8FF206AE710E0B8F80020511C5E
:1056A000306800F0B2FDB8F80020B4F800C03B1D2F
:1056B0000CEB0301306800F08FFD01E0FF2056E79E
:1056C00000BF2B21284600F0C9FD20B92321284620
:1056D00000F0C4FD08B1FF2049E7002047E770B59E
:1056E00005460C4604212046FFF7EEF9206808B96C
:1056F000012070BD40216268501C606020688154A8
:1057000002216268501C606020688154291262681E
:10571000501C6060206881546268501C6060206882
:1057200085540020E5E701464878022801D0012091
:105730007047887820B9C8780A2801D10020F7E797
:105740000120F5E770B505460C4604212046FFF719
:10575000BBF9206808B9012070BD50216268501C57
:1057600060602068815402216268501C606020687B
:10577000815429126268501C6060206881546268FC
:10578000501C6060206885540020E5E70146487899
:10579000022801D001207047887820B9C8780A28EB
:1057A00001D10020F7E70120F5E770B505460C466A
:1057B00004212046FFF788F9206808B9012070BD50
:1057C00062216268501C6060206881540221626816
:1057D000501C60602068815429126268501C60600F
:1057E000206881546268501C6060206885540020E5
:1057F000E5E702465078022801D0012070479078F2
:10580000B0EB112F05D1D078CBB2984201D1002056
:10581000F4E70120F2E770B505460C460421204666
:10582000FFF752F9206808B9012070BD7021626845
:10583000501C60602068815402216268501C6060C6
:105840002068815429126268501C6060206881546D
:105850006268501C6060206885540020E5E70146BE
:105860004878022801D001207047887820B9C8788C
:105870000A2801D10020F7E70120F5E710B504461A
:1058800002212046FFF720F9206808B9012010BD49
:10589000C0216268501C60602068815400216268E9
:1058A000501C6060206881540020F0E730B58BB058
:1058B00000200790089009900A900125D3A3D6A252
:1058C000D7A1D9A000F0F2FD07A800210291039111
:1058D000CDE9041000912B02CCA20191CEA1D0A061
:1058E000FFF79BF900283BD1089A91B20798FEF781
:1058F0009EFEFA20FEF7B2FE0446002C2CD0204675
:10590000FFF756F9022827D12046FFF7EBFA0628C1
:105910001DD2DFE800F003080C101418CEA000F030
:10592000C5FD002517E0D1A000F0C0FD13E0D6A012
:1059300000F0BCFD0FE0DDA000F0B8FD0BE0E3A03F
:1059400000F0B4FD07E0EAA000F0B0FD03E0F3A032
:1059500000F0ACFD00BF00BF07A8FFF7E1F802E0D0
:10596000F5A000F0A3FD28460BB030BD10B588B0FF
:1059700004462021684600F048FCF8A1204600F0CB
:1059800092FC2021684600F040FCF54843780278FC
:10599000F4A1684600F09AFD6946204600F040FCFC
:1059A0002021684600F031FCED48C3788278F0A1F0
:1059B000684600F08BFD6946204600F031FC20214E
:1059C000684600F022FCE6480279ECA1684600F047
:1059D0007DFD6946204600F023FC2021684600F04A
:1059E00014FCDF484279E8A1684600F06FFD694683
:1059F000204600F015FC2021684600F006FCD8483F
:105A00008279E3A1684600F061FD6946204600F016
:105A100007FC2021684600F0F8FBD148C279DEA1DE
:105A2000684600F053FD6946204600F0F9FB20214E
:105A3000684600F0EAFBCA48027AD9A1684600F03D
:105A400045FD6946204600F0EBFB2021684600F04A
:105A5000DCFBC348427AD5A1684600F037FD6946B1
:105A6000204600F0DDFB2021684600F0CEFBBC485C
:105A7000C27AD1A1684600F029FD6946204600F0AF
:105A8000CFFB2021684600F0C0FBB548827ACDA14B
:105A9000684600F01BFD6946204600F0C1FB20214E
:105AA000684600F0B2FBAE48027BCAA1684600F02F
:105AB0000DFD6946204600F0B3FB2021684600F04A
:105AC000A4FBA748427BC7A1684600F0FFFC6946DB
:105AD000204600F0A5FB2021684600F096FBA04878
